{"abi":[{"type":"constructor","inputs":[{"name":"_bananasharesTokenAddr","type":"address","internalType":"address"},{"name":"_protocolDeploymentDate","type":"uint256","internalType":"uint256"}],"stateMutability":"nonpayable"},{"type":"function","name":"UPGRADE_INTERFACE_VERSION","inputs":[],"outputs":[{"name":"","type":"string","internalType":"string"}],"stateMutability":"view"},{"type":"function","name":"createAssetInstance","inputs":[{"name":"_nameOfAsset","type":"string","internalType":"string"},{"name":"_initialOwners","type":"string[]","internalType":"string[]"},{"name":"_shareholderAddress","type":"address[]","internalType":"address[]"},{"name":"_shares","type":"uint24[]","internalType":"uint24[]"},{"name":"_assetHash","type":"bytes32","internalType":"bytes32"}],"outputs":[],"stateMutability":"nonpayable"},{"type":"function","name":"getAssetInstanceByHash","inputs":[{"name":"_hash","type":"bytes32","internalType":"bytes32"}],"outputs":[{"name":"","type":"address","internalType":"address"}],"stateMutability":"view"},{"type":"function","name":"getAssetInstanceHashByAddress","inputs":[{"name":"_address","type":"address","internalType":"address"}],"outputs":[{"name":"","type":"bytes32","internalType":"bytes32"}],"stateMutability":"view"},{"type":"function","name":"getAssetInstanceImplementation","inputs":[],"outputs":[{"name":"","type":"address","internalType":"address"}],"stateMutability":"view"},{"type":"function","name":"getAssetInstanceNumber","inputs":[],"outputs":[{"name":"","type":"uint256","internalType":"uint256"}],"stateMutability":"view"},{"type":"function","name":"getGlobalSettings","inputs":[],"outputs":[{"name":"","type":"tuple","internalType":"struct Asset_Structs.GlobalSettings","components":[{"name":"commission_for_privileged","type":"uint24","internalType":"uint24"},{"name":"commission_for_protocol","type":"uint24","internalType":"uint24"},{"name":"min_sell_offer","type":"uint96","internalType":"uint96"}]}],"stateMutability":"view"},{"type":"function","name":"initialize","inputs":[{"name":"_AssetTimelockControllerAddr","type":"address","internalType":"address"}],"outputs":[],"stateMutability":"nonpayable"},{"type":"function","name":"owner","inputs":[],"outputs":[{"name":"","type":"address","internalType":"address"}],"stateMutability":"view"},{"type":"function","name":"proxiableUUID","inputs":[],"outputs":[{"name":"","type":"bytes32","internalType":"bytes32"}],"stateMutability":"view"},{"type":"function","name":"reinitialize","inputs":[],"outputs":[],"stateMutability":"nonpayable"},{"type":"function","name":"renounceOwnership","inputs":[],"outputs":[],"stateMutability":"nonpayable"},{"type":"function","name":"sendTokenMintingOrder","inputs":[{"name":"_tokenReceiver_1","type":"address","internalType":"address"},{"name":"_tokenReceiver_2","type":"address","internalType":"address"},{"name":"_numberOfAssetShares","type":"uint256","internalType":"uint256"},{"name":"_alreadyMinted","type":"uint256","internalType":"uint256"}],"outputs":[{"name":"","type":"uint256","internalType":"uint256"},{"name":"","type":"uint256","internalType":"uint256"}],"stateMutability":"nonpayable"},{"type":"function","name":"setAssetInstanceImplementation","inputs":[{"name":"_implementation","type":"address","internalType":"address"}],"outputs":[],"stateMutability":"nonpayable"},{"type":"function","name":"setGlobalSettings","inputs":[{"name":"_commission_for_privileged","type":"uint24","internalType":"uint24"},{"name":"_commission_for_protocol","type":"uint24","internalType":"uint24"},{"name":"_min_sell_offer","type":"uint96","internalType":"uint96"}],"outputs":[],"stateMutability":"nonpayable"},{"type":"function","name":"transferOwnership","inputs":[{"name":"newOwner","type":"address","internalType":"address"}],"outputs":[],"stateMutability":"nonpayable"},{"type":"function","name":"upgradeToAndCall","inputs":[{"name":"newImplementation","type":"address","internalType":"address"},{"name":"data","type":"bytes","internalType":"bytes"}],"outputs":[],"stateMutability":"payable"},{"type":"function","name":"withdraw","inputs":[],"outputs":[],"stateMutability":"nonpayable"},{"type":"function","name":"withdrawTo","inputs":[{"name":"_addr","type":"address","internalType":"address payable"},{"name":"_amount","type":"uint256","internalType":"uint256"}],"outputs":[],"stateMutability":"nonpayable"},{"type":"event","name":"AssetInstanceCreated","inputs":[{"name":"AssetInstanceCreator","type":"address","indexed":true,"internalType":"address"},{"name":"AssetInstanceAddress","type":"address","indexed":true,"internalType":"address"},{"name":"assetName","type":"string","indexed":false,"internalType":"string"}],"anonymous":false},{"type":"event","name":"AssetInstanceCreationFailure","inputs":[{"name":"AssetInstanceCreator","type":"address","indexed":true,"internalType":"address"},{"name":"reason","type":"string","indexed":false,"internalType":"string"}],"anonymous":false},{"type":"event","name":"Initialized","inputs":[{"name":"version","type":"uint64","indexed":false,"internalType":"uint64"}],"anonymous":false},{"type":"event","name":"OwnershipTransferred","inputs":[{"name":"previousOwner","type":"address","indexed":true,"internalType":"address"},{"name":"newOwner","type":"address","indexed":true,"internalType":"address"}],"anonymous":false},{"type":"event","name":"Upgraded","inputs":[{"name":"implementation","type":"address","indexed":true,"internalType":"address"}],"anonymous":false},{"type":"error","name":"AddressEmptyCode","inputs":[{"name":"target","type":"address","internalType":"address"}]},{"type":"error","name":"AssetInstanceAlreadyExists","inputs":[{"name":"AssetInstanceHash","type":"bytes32","internalType":"bytes32"}]},{"type":"error","name":"ERC1967InvalidImplementation","inputs":[{"name":"implementation","type":"address","internalType":"address"}]},{"type":"error","name":"ERC1967NonPayable","inputs":[]},{"type":"error","name":"FailedCall","inputs":[]},{"type":"error","name":"InsufficientBalance","inputs":[]},{"type":"error","name":"InvalidImplementation","inputs":[{"name":"implementation","type":"address","internalType":"address"}]},{"type":"error","name":"InvalidInitialization","inputs":[]},{"type":"error","name":"NotInitializing","inputs":[]},{"type":"error","name":"OwnableInvalidOwner","inputs":[{"name":"owner","type":"address","internalType":"address"}]},{"type":"error","name":"OwnableUnauthorizedAccount","inputs":[{"name":"account","type":"address","internalType":"address"}]},{"type":"error","name":"ReentrancyGuardReentrantCall","inputs":[]},{"type":"error","name":"UUPSUnauthorizedCallContext","inputs":[]},{"type":"error","name":"UUPSUnsupportedProxiableUUID","inputs":[{"name":"slot","type":"bytes32","internalType":"bytes32"}]},{"type":"error","name":"UnauthorizedCallContext","inputs":[]},{"type":"error","name":"UnauthorizedFunctionCall","inputs":[{"name":"sender","type":"address","internalType":"address"}]},{"type":"error","name":"ZeroAddress","inputs":[]}],"bytecode":{"object":"0x60e060405230608052348015610013575f80fd5b5060405162003d0c38038062003d0c8339810160408190526100349161006e565b60017f5206f8f04163e00d1e6d2e8ebcf846b0e2bc0eb93ddaaadf84bcbedf4a4976bd556001600160a01b0390911660a05260c0526100a5565b5f806040838503121561007f575f80fd5b82516001600160a01b0381168114610095575f80fd5b6020939093015192949293505050565b60805160a05160c051613c0b620001015f395f61057901525f81816104c70152818161063301528181610705015281816107840152818161083301526108b201525f81816110dc0152818161110601526112590152613c0b5ff3fe60806040526004361062000127575f3560e01c80636c2eb35011620000aa578063c4d66de8116200006a578063c4d66de814620003bc578063e7addf7014620003e0578063ed70905114620003ff578063f2d2d2fe1462000423578063f2fde38b146200045b575f80fd5b80636c2eb3501462000279578063715018a614620002905780638cf515f414620002a75780638da5cb5b146200034b578063ad3cb1cc146200037b575f80fd5b80634f1ef28611620000f65780634f1ef28614620001ed57806352d1902d1462000204578063559dff30146200021b578063603cdfe2146200023157806365e0af5b1462000255575f80fd5b806302eaabca146200012b5780630a0d3fff1462000176578063205c287814620001b05780633ccfd60b14620001d6575b5f80fd5b34801562000137575f80fd5b5062000163620001493660046200156e565b6001600160a01b03165f9081526020819052604090205490565b6040519081526020015b60405180910390f35b34801562000182575f80fd5b506200019a620001943660046200158c565b6200047f565b604080519283526020830191909152016200016d565b348015620001bc575f80fd5b50620001d4620001ce366004620015d4565b62000920565b005b348015620001e2575f80fd5b50620001d462000a10565b620001d4620001fe36600462001644565b62000a86565b34801562000210575f80fd5b506200016362000aa7565b34801562000227575f80fd5b5060025462000163565b3480156200023d575f80fd5b50620001d46200024f3660046200170c565b62000ac6565b34801562000261575f80fd5b50620001d462000273366004620017ab565b62000b41565b34801562000285575f80fd5b50620001d462000d59565b3480156200029c575f80fd5b50620001d462000e48565b348015620002b3575f80fd5b5062000315604080516060810182525f8082526020820181905291810191909152506040805160608101825260045462ffffff808216835263010000008204166020830152660100000000000090046001600160601b03169181019190915290565b60408051825162ffffff908116825260208085015190911690820152918101516001600160601b0316908201526060016200016d565b34801562000357575f80fd5b506200036262000e5f565b6040516001600160a01b0390911681526020016200016d565b34801562000387575f80fd5b50620003ad604051806040016040528060058152602001640352e302e360dc1b81525081565b6040516200016d9190620018c6565b348015620003c8575f80fd5b50620001d4620003da3660046200156e565b62000e8d565b348015620003ec575f80fd5b506003546001600160a01b031662000362565b3480156200040b575f80fd5b50620001d46200041d3660046200156e565b62000f8f565b3480156200042f575f80fd5b506200036262000441366004620018fa565b5f908152600160205260409020546001600160a01b031690565b34801562000467575f80fd5b50620001d4620004793660046200156e565b62000ff2565b335f9081526020819052604081205481908103620004b757604051630de90acd60e11b81523360048201526024015b60405180910390fd5b5f805f805f670de0b6b3a76400007f00000000000000000000000000000000000000000000000000000000000000006001600160a01b031663306859616040518163ffffffff1660e01b8152600401602060405180830381865afa15801562000522573d5f803e3d5ffd5b505050506040513d601f19601f8201168201806040525081019062000548919062001912565b6200055491906200193e565b9050805f036200056f575f8096509650505050505062000917565b6200059e62f099c07f00000000000000000000000000000000000000000000000000000000000000006200195e565b431115620005b1576103e89150620005b6565b606491505b620005c582620f42406200193e565b8810620005dd575f8096509650505050505062000917565b620005e9828a6200193e565b9450845f0362000604575f8096509650505050505062000917565b806001036200069e576040516340c10f1960e01b81526001600160a01b038c81166004830152600160248301527f000000000000000000000000000000000000000000000000000000000000000016906340c10f19906044015f604051808303815f87803b15801562000675575f80fd5b505af115801562000688573d5f803e3d5ffd5b5050505060015f96509650505050505062000917565b6002851015620006b9575f8096509650505050505062000917565b808511620007ef57620006ce6002866200193e565b9350620006dc848662001974565b6040516340c10f1960e01b81526001600160a01b038d81166004830152602482018790529194507f0000000000000000000000000000000000000000000000000000000000000000909116906340c10f19906044015f604051808303815f87803b15801562000749575f80fd5b505af11580156200075c573d5f803e3d5ffd5b50506040516340c10f1960e01b81526001600160a01b038d81166004830152602482018790527f00000000000000000000000000000000000000000000000000000000000000001692506340c10f1991506044015f604051808303815f87803b158015620007c8575f80fd5b505af1158015620007db573d5f803e3d5ffd5b509598509396506200091795505050505050565b620007fc6002826200193e565b93506200080a848262001974565b6040516340c10f1960e01b81526001600160a01b038d81166004830152602482018790529194507f0000000000000000000000000000000000000000000000000000000000000000909116906340c10f19906044015f604051808303815f87803b15801562000877575f80fd5b505af11580156200088a573d5f803e3d5ffd5b50506040516340c10f1960e01b81526001600160a01b038d81166004830152602482018790527f00000000000000000000000000000000000000000000000000000000000000001692506340c10f1991506044015f604051808303815f87803b158015620008f6575f80fd5b505af115801562000909573d5f803e3d5ffd5b509598509396505050505050505b94509492505050565b6200092a62001032565b6200093462001068565b5f806001600160a01b0384166200095e5760405163d92e233d60e01b815260040160405180910390fd5b479150828210156200098357604051631e9acf1760e31b815260040160405180910390fd5b6040516001600160a01b0385169084905f81818185875af1925050503d805f8114620009cb576040519150601f19603f3d011682016040523d82523d5f602084013e620009d0565b606091505b50508091505080620009e0575f80fd5b505062000a0c60017f5206f8f04163e00d1e6d2e8ebcf846b0e2bc0eb93ddaaadf84bcbedf4a4976bd55565b5050565b62000a1a62001032565b5f62000a2562000e5f565b6001600160a01b0316476040515f6040518083038185875af1925050503d805f811462000a6e576040519150601f19603f3d011682016040523d82523d5f602084013e62000a73565b606091505b5050809150508062000a83575f80fd5b50565b62000a90620010d1565b62000a9b8262001179565b62000a0c828262001183565b5f62000ab26200124e565b505f8051602062003b968339815191525b90565b62000ad062001032565b6040805160608101825262ffffff94851680825293909416602085018190526001600160601b039290921693018390526004805465ffffffffffff191690921763010000009091021771ffffffffffffffffffffffff00000000000019166601000000000000909202919091179055565b5f818152600160205260408120546001600160a01b03161562000b7b57604051634ea224eb60e11b815260048101839052602401620004ae565b89898989898989898960405162000b92906200154b565b62000ba69998979695949392919062001a37565b604051809103905ff0801562000bb95760015b62000cd35762000bc862001b29565b806308c379a00362000c36575062000bdf62001b42565b8062000bec575062000c38565b336001600160a01b03167f6c7db04133a322b8b27aab8990dd4aa8690c740d8c8901ded3f47a72c1dc1eff8260405162000c279190620018c6565b60405180910390a25062000d4d565b505b3d80801562000c63576040519150601f19603f3d011682016040523d82523d5f602084013e62000c68565b606091505b50336001600160a01b03167f6c7db04133a322b8b27aab8990dd4aa8690c740d8c8901ded3f47a72c1dc1eff60405162000c279060208082526018908201527f4c6f772d6c6576656c206572726f72206f636375727265640000000000000000604082015260600190565b6001600160a01b0381165f8181526020818152604080832087905586835260019091529081902080546001600160a01b0319168317905551919250829133907f1b1fea60ec9fd6f3eb67c5de93cfa77380cf01db79a7d51b27752d8ebc1d5a2d9062000d43908f908f9062001bd0565b60405180910390a3505b50505050505050505050565b5f8051602062003bb6833981519152546001600160401b031662000d7f90600162001bed565b5f8051602062003bb68339815191528054600160401b900460ff168062000db3575080546001600160401b03808416911610155b1562000dd25760405163f92ee8a960e01b815260040160405180910390fd5b805468ffffffffffffffffff19166001600160401b03831617600160401b17815562000dfd62001032565b805460ff60401b191681556040516001600160401b03831681527fc7f505b2f371ae2175ee4913f4499e1f2633a7b5936321eed1cdaeb6115181d29060200160405180910390a15050565b62000e5262001032565b62000e5d5f62001298565b565b7f9016d09d72d40fdae2fd8ceac6b6234c7706214fd39c1cd1e609a0528c199300546001600160a01b031690565b5f8051602062003bb68339815191528054600160401b810460ff1615906001600160401b03165f8115801562000ec05750825b90505f826001600160401b0316600114801562000edc5750303b155b90508115801562000eeb575080155b1562000f0a5760405163f92ee8a960e01b815260040160405180910390fd5b845467ffffffffffffffff19166001178555831562000f3557845460ff60401b1916600160401b1785555b62000f408662001308565b831562000f8757845460ff60401b19168555604051600181527fc7f505b2f371ae2175ee4913f4499e1f2633a7b5936321eed1cdaeb6115181d29060200160405180910390a15b505050505050565b62000f9962001032565b806001600160a01b03163b5f0362000fd057604051630c76093760e01b81526001600160a01b0382166004820152602401620004ae565b600380546001600160a01b0319166001600160a01b0392909216919091179055565b62000ffc62001032565b6001600160a01b0381166200102757604051631e4fbdf760e01b81525f6004820152602401620004ae565b62000a838162001298565b336200103d62000e5f565b6001600160a01b03161462000e5d5760405163118cdaa760e01b8152336004820152602401620004ae565b60027f5206f8f04163e00d1e6d2e8ebcf846b0e2bc0eb93ddaaadf84bcbedf4a4976bd5403620010ab57604051633ee5aeb560e01b815260040160405180910390fd5b60027f5206f8f04163e00d1e6d2e8ebcf846b0e2bc0eb93ddaaadf84bcbedf4a4976bd55565b306001600160a01b037f00000000000000000000000000000000000000000000000000000000000000001614806200115a57507f00000000000000000000000000000000000000000000000000000000000000006001600160a01b03166200114e5f8051602062003b96833981519152546001600160a01b031690565b6001600160a01b031614155b1562000e5d5760405163703e46dd60e11b815260040160405180910390fd5b62000a8362001032565b816001600160a01b03166352d1902d6040518163ffffffff1660e01b8152600401602060405180830381865afa925050508015620011e0575060408051601f3d908101601f19168201909252620011dd9181019062001912565b60015b6200120a57604051634c9c8ce360e01b81526001600160a01b0383166004820152602401620004ae565b5f8051602062003b9683398151915281146200123d57604051632a87526960e21b815260048101829052602401620004ae565b6200124983836200131d565b505050565b306001600160a01b037f0000000000000000000000000000000000000000000000000000000000000000161462000e5d5760405163703e46dd60e11b815260040160405180910390fd5b7f9016d09d72d40fdae2fd8ceac6b6234c7706214fd39c1cd1e609a0528c19930080546001600160a01b031981166001600160a01b03848116918217845560405192169182907f8be0079c531659141344cd1fd0a4f28419497f9722a3daafe3b4186f6b6457e0905f90a3505050565b6200131262001379565b62000a8381620013b1565b6200132882620013bb565b6040516001600160a01b038316907fbc7cd75a20ee27fd9adebab32041f755214dbc6bffa90cc0225b39da2e5c2d3b905f90a28051156200136f5762001249828262001421565b62000a0c6200149b565b5f8051602062003bb683398151915254600160401b900460ff1662000e5d57604051631afcd79f60e31b815260040160405180910390fd5b62000ffc62001379565b806001600160a01b03163b5f03620013f257604051634c9c8ce360e01b81526001600160a01b0382166004820152602401620004ae565b5f8051602062003b9683398151915280546001600160a01b0319166001600160a01b0392909216919091179055565b60605f80846001600160a01b0316846040516200143f919062001c17565b5f60405180830381855af49150503d805f811462001479576040519150601f19603f3d011682016040523d82523d5f602084013e6200147e565b606091505b509150915062001490858383620014bb565b925050505b92915050565b341562000e5d5760405163b398979f60e01b815260040160405180910390fd5b606082620014d457620014ce8262001521565b6200151a565b8151158015620014ec57506001600160a01b0384163b155b156200151757604051639996b31560e01b81526001600160a01b0385166004820152602401620004ae565b50805b9392505050565b805115620015325780518082602001fd5b60405163d6bda27560e01b815260040160405180910390fd5b611f618062001c3583390190565b6001600160a01b038116811462000a83575f80fd5b5f602082840312156200157f575f80fd5b81356200151a8162001559565b5f805f8060808587031215620015a0575f80fd5b8435620015ad8162001559565b93506020850135620015bf8162001559565b93969395505050506040820135916060013590565b5f8060408385031215620015e6575f80fd5b8235620015f38162001559565b946020939093013593505050565b634e487b7160e01b5f52604160045260245ffd5b601f8201601f191681016001600160401b03811182821017156200163d576200163d62001601565b6040525050565b5f806040838503121562001656575f80fd5b8235620016638162001559565b91506020838101356001600160401b038082111562001680575f80fd5b818601915086601f83011262001694575f80fd5b813581811115620016a957620016a962001601565b6040519150620016c3601f8201601f191685018362001615565b8082528784828501011115620016d7575f80fd5b80848401858401375f848284010152508093505050509250929050565b803562ffffff8116811462001707575f80fd5b919050565b5f805f606084860312156200171f575f80fd5b6200172a84620016f4565b92506200173a60208501620016f4565b915060408401356001600160601b038116811462001756575f80fd5b809150509250925092565b5f8083601f84011262001772575f80fd5b5081356001600160401b0381111562001789575f80fd5b6020830191508360208260051b8501011115620017a4575f80fd5b9250929050565b5f805f805f805f805f60a08a8c031215620017c4575f80fd5b89356001600160401b0380821115620017db575f80fd5b818c0191508c601f830112620017ef575f80fd5b813581811115620017fe575f80fd5b8d602082850101111562001810575f80fd5b60209283019b509950908b013590808211156200182b575f80fd5b620018398d838e0162001761565b909950975060408c013591508082111562001852575f80fd5b620018608d838e0162001761565b909750955060608c013591508082111562001879575f80fd5b50620018888c828d0162001761565b9a9d999c50979a9699959894979660800135949350505050565b5f5b83811015620018be578181015183820152602001620018a4565b50505f910152565b602081525f8251806020840152620018e6816040850160208701620018a2565b601f01601f19169190910160400192915050565b5f602082840312156200190b575f80fd5b5035919050565b5f6020828403121562001923575f80fd5b5051919050565b634e487b7160e01b5f52601160045260245ffd5b5f826200195957634e487b7160e01b5f52601260045260245ffd5b500490565b808201808211156200149557620014956200192a565b818103818111156200149557620014956200192a565b81835281816020850137505f828201602090810191909152601f909101601f19169091010190565b8183525f60208085019450825f5b85811015620019f2578135620019d68162001559565b6001600160a01b031687529582019590820190600101620019c0565b509495945050505050565b8183525f60208085019450825f5b85811015620019f25762ffffff62001a2383620016f4565b168752958201959082019060010162001a0b565b60a081525f62001a4c60a083018b8d6200198a565b82810360208401528089825260208201905060208a60051b8301018b5f5b8c81101562001ae257848303601f190184528135368f9003601e1901811262001a91575f80fd5b8e016020810190356001600160401b0381111562001aad575f80fd5b80360382131562001abc575f80fd5b62001ac98582846200198a565b6020968701969095509390930192505060010162001a6a565b5050848103604086015262001af9818a8c620019b2565b92505050828103606084015262001b12818688620019fd565b9150508260808301529a9950505050505050505050565b5f60033d111562000ac35760045f803e505f5160e01c90565b5f60443d101562001b505790565b6040516003193d81016004833e81513d6001600160401b03816024840111818411171562001b8057505050505090565b828501915081518181111562001b995750505050505090565b843d870101602082850101111562001bb45750505050505090565b62001bc56020828601018762001615565b509095945050505050565b602081525f62001be56020830184866200198a565b949350505050565b6001600160401b0381811683821601908082111562001c105762001c106200192a565b5092915050565b5f825162001c2a818460208701620018a2565b919091019291505056fe60c06040526004805462ffffff1916620f424017905534801562000021575f80fd5b5060405162001f6138038062001f61833981016040819052620000449162000abd565b33803b5f036200007757604051638ebc912f60e01b81526001600160a01b03821660048201526024015b60405180910390fd5b6001600160a01b031660809081526040805160a0810182525f808252602082018190529181018290526060810182905291820181905290604080516060810182525f8082526020820181905291810191909152604080516080810182525f808252602082018190529181018290526060810191909152885160401015620001365760405162461bcd60e51b81526020600482015260126024820152710eee4dedcce40e8d2e8d8ca40d8cadccee8d60731b60448201526064016200006e565b8651600a10156200018a5760405162461bcd60e51b815260206004820152601560248201527f746f6f206d616e79207368617265686f6c64657273000000000000000000000060448201526064016200006e565b8751875114620001ce5760405162461bcd60e51b815260206004820152600e60248201526d77726f6e67206c656e677468203160901b60448201526064016200006e565b8551875114620002125760405162461bcd60e51b815260206004820152600e60248201526d3bb937b733903632b733ba34101960911b60448201526064016200006e565b600680546001810182555f9182527ff652222313e28459528d920b65115c16c04f3efc82aaedc97be59f3f377c0d3f0180546001600160a01b03191690555b87518162ffffff161015620004685760055f898362ffffff16815181106200027d576200027d62000bec565b6020908102919091018101516001600160a01b031682528101919091526040015f205462ffffff1615620002e85760405162461bcd60e51b81526020600482015260116024820152706475706c6963617465206164647265737360781b60448201526064016200006e565b620002f581600162000c14565b60055f8a8462ffffff168151811062000312576200031262000bec565b60200260200101516001600160a01b03166001600160a01b031681526020019081526020015f205f6101000a81548162ffffff021916908362ffffff1602179055506006888262ffffff168151811062000370576200037062000bec565b60209081029190910181015182546001810184555f938452919092200180546001600160a01b0319166001600160a01b039092169190911790558651879062ffffff8316908110620003c657620003c662000bec565b602002602001015160035f8a8462ffffff1681518110620003eb57620003eb62000bec565b6020908102919091018101516001600160a01b031682528101919091526040015f20805462ffffff191662ffffff92831617905587518891831690811062000437576200043762000bec565b602002602001015162ffffff168562000451919062000c3a565b9450806200045f8162000c56565b91505062000251565b50620f42408414620004ab5760405162461bcd60e51b815260206004820152600b60248201526a77726f6e67207375706c7960a81b60448201526064016200006e565b5f620004b88a8262000d04565b5060018590555f5b8851811015620005c557602060ff16898281518110620004e457620004e462000bec565b60200260200101515111156200053d5760405162461bcd60e51b815260206004820152601360248201527f77726f6e67206c656e67746820617574686f720000000000000000000000000060448201526064016200006e565b5f60405180602001604052808b84815181106200055e576200055e62000bec565b60209081029190910101519052600280546001810182555f91909152815191925082917f405787fa12a823e0f2b7631cc41b3ba8828b3321ca811111fa75cd3aa3bb5ace909101908190620005b4908262000d04565b505060019092019150620004c09050565b506040518060a001604052805f6001600160a01b031681526020015f6001600160601b031681526020015f6001600160601b031681526020015f6001600160601b031681526020015f62ffffff16815250925060405180606001604052806203078360ec1b81526020015f6001600160e01b031681526020015f1515815250915060405180608001604052806203078360ec1b81526020015f6001600160e01b031681526020015f6001600160a01b031681526020015f65ffffffffffff168152509050600883908060018154018082558091505060019003905f5260205f2090600202015f909190919091505f820151815f015f6101000a8154816001600160a01b0302191690836001600160a01b031602179055506020820151815f0160146101000a8154816001600160601b0302191690836001600160601b031602179055506040820151816001015f6101000a8154816001600160601b0302191690836001600160601b03160217905550606082015181600101600c6101000a8154816001600160601b0302191690836001600160601b0316021790555060808201518160010160186101000a81548162ffffff021916908362ffffff1602179055505050600a82908060018154018082558091505060019003905f5260205f2090600202015f909190919091505f820151815f01556020820151816001015f6101000a8154816001600160e01b0302191690836001600160e01b03160217905550604082015181600101601c6101000a81548160ff0219169083151502179055505050600d81908060018154018082558091505060019003905f5260205f2090600302015f909190919091505f820151815f01556020820151816001015f6101000a8154816001600160e01b0302191690836001600160e01b031602179055506040820151816002015f6101000a8154816001600160a01b0302191690836001600160a01b0316021790555060608201518160020160146101000a81548165ffffffffffff021916908365ffffffffffff160217905550505050505050505050505062000dd0565b634e487b7160e01b5f52604160045260245ffd5b604051601f8201601f191681016001600160401b03811182821017156200090b576200090b620008cc565b604052919050565b5f82601f83011262000923575f80fd5b81516001600160401b038111156200093f576200093f620008cc565b602062000955601f8301601f19168201620008e0565b828152858284870101111562000969575f80fd5b5f5b83811015620009885785810183015182820184015282016200096b565b505f928101909101919091529392505050565b5f6001600160401b03821115620009b657620009b6620008cc565b5060051b60200190565b5f82601f830112620009d0575f80fd5b81516020620009e9620009e3836200099b565b620008e0565b8083825260208201915060208460051b87010193508684111562000a0b575f80fd5b602086015b8481101562000a3e5780516001600160a01b038116811462000a30575f80fd5b835291830191830162000a10565b509695505050505050565b5f82601f83011262000a59575f80fd5b8151602062000a6c620009e3836200099b565b8083825260208201915060208460051b87010193508684111562000a8e575f80fd5b602086015b8481101562000a3e57805162ffffff8116811462000aaf575f80fd5b835291830191830162000a93565b5f805f805f60a0868803121562000ad2575f80fd5b85516001600160401b038082111562000ae9575f80fd5b62000af789838a0162000913565b965060209150818801518181111562000b0e575f80fd5b8801601f81018a1362000b1f575f80fd5b805162000b30620009e3826200099b565b81815260059190911b8201840190848101908c83111562000b4f575f80fd5b8584015b8381101562000b8a5780518681111562000b6b575f80fd5b62000b7b8f898389010162000913565b84525091860191860162000b53565b5060408c015190995094505050508082111562000ba5575f80fd5b62000bb389838a01620009c0565b9450606088015191508082111562000bc9575f80fd5b5062000bd88882890162000a49565b925050608086015190509295509295909350565b634e487b7160e01b5f52603260045260245ffd5b634e487b7160e01b5f52601160045260245ffd5b62ffffff81811683821601908082111562000c335762000c3362000c00565b5092915050565b8082018082111562000c505762000c5062000c00565b92915050565b5f62ffffff80831681810362000c705762000c7062000c00565b6001019392505050565b600181811c9082168062000c8f57607f821691505b60208210810362000cae57634e487b7160e01b5f52602260045260245ffd5b50919050565b601f82111562000cff57805f5260205f20601f840160051c8101602085101562000cdb5750805b601f840160051c820191505b8181101562000cfc575f815560010162000ce7565b50505b505050565b81516001600160401b0381111562000d205762000d20620008cc565b62000d388162000d31845462000c7a565b8462000cb4565b602080601f83116001811462000d6e575f841562000d565750858301515b5f19600386901b1c1916600185901b17855562000dc8565b5f85815260208120601f198616915b8281101562000d9e5788860151825594840194600190910190840162000d7d565b508582101562000dbc57878501515f19600388901b60f8161c191681555b505060018460011b0185555b505050505050565b60805160a05161116f62000df25f395f61036b01525f610da9015261116f5ff3fe6080604052600436106101b9575f3560e01c8063ac269353116100eb578063da126eee11610089578063e64be6fd11610063578063e64be6fd14610667578063f04da65b14610692578063f4413bcc146106cb578063f8b2cb4f146106df576101c0565b8063da126eee1461061b578063deb9cbbc14610634578063e1ad79b814610653576101c0565b8063c7870516116100c5578063c787051614610586578063d093bfbb146105bf578063d15b1e9a146105d3578063d9b373ef14610607576101c0565b8063ac269353146104d9578063b2dd121214610526578063b8e0ffbe14610572576101c0565b80635d7869e41161015857806382121da51161013257806382121da51461041b5780639e2b84881461045d5780639f27e82014610489578063a9a0c7e4146104c5576101c0565b80635d7869e4146103b357806373c2dc12146103d45780637fffd401146103e8576101c0565b80633280a836116101945780633280a836146102645780634579268a146102d0578063490d9e2d146103525780635a28f04114610395576101c0565b80628cb3a4146101ca5780632be8786114610222578063314b6a9614610243576101c0565b366101c057005b6101c8610713565b005b3480156101d5575f80fd5b506102066101e4366004610e5c565b6001600160a01b03165f9081526010602052604090205465ffffffffffff1690565b60405165ffffffffffff90911681526020015b60405180910390f35b34801561022d575f80fd5b50610236610725565b6040516102199190610e7e565b34801561024e575f80fd5b50610257610785565b6040516102199190610f0d565b34801561026f575f80fd5b5061028361027e366004610f1f565b61080b565b6040516102199190815181526020808301516001600160e01b0316908201526040808301516001600160a01b03169082015260609182015165ffffffffffff169181019190915260800190565b3480156102db575f80fd5b506102ef6102ea366004610f1f565b6108a9565b604051610219919081516001600160a01b031681526020808301516bffffffffffffffffffffffff908116918301919091526040808401518216908301526060808401519091169082015260809182015162ffffff169181019190915260a00190565b34801561035d575f80fd5b506040516001600160a01b037f0000000000000000000000000000000000000000000000000000000000000000168152602001610219565b3480156103a0575f80fd5b506002545b604051908152602001610219565b3480156103be575f80fd5b506103c7610964565b6040516102199190610f36565b3480156103df575f80fd5b506103a5610a4b565b3480156103f3575f80fd5b506103a5610402366004610f9e565b65ffffffffffff165f908152600b602052604090205490565b348015610426575f80fd5b5061043a610435366004610f1f565b610a61565b604080516001600160a01b03909316835262ffffff909116602083015201610219565b348015610468575f80fd5b5061047c610477366004610f1f565b610aaa565b6040516102199190610fc3565b348015610494575f80fd5b506102066104a3366004610e5c565b6001600160a01b03165f908152600c602052604090205465ffffffffffff1690565b3480156104d0575f80fd5b50600e546103a5565b3480156104e4575f80fd5b506105126104f3366004610e5c565b6001600160a01b03165f9081526005602052604090205462ffffff1690565b60405162ffffff9091168152602001610219565b348015610531575f80fd5b50610545610540366004610f1f565b610b75565b60408051825181526020808401516001600160e01b03169082015291810151151590820152606001610219565b34801561057d575f80fd5b506103a5610bf4565b348015610591575f80fd5b506105126105a0366004610e5c565b6001600160a01b03165f9081526007602052604090205462ffffff1690565b3480156105ca575f80fd5b506103a5610c05565b3480156105de575f80fd5b506105f26105ed366004610e5c565b610c16565b60408051928352602083019190915201610219565b348015610612575f80fd5b506103a5610d05565b348015610626575f80fd5b5060045462ffffff16610512565b34801561063f575f80fd5b506103a561064e366004610e5c565b610d16565b34801561065e575f80fd5b506103a5610d8f565b348015610672575f80fd5b506103a5610681366004610f1f565b5f9081526009602052604090205490565b34801561069d575f80fd5b506105126106ac366004610e5c565b6001600160a01b03165f9081526003602052604090205462ffffff1690565b3480156106d6575f80fd5b506001546103a5565b3480156106ea575f80fd5b506103a56106f9366004610e5c565b6001600160a01b03165f908152600f602052604090205490565b61072361071e610da6565b610e27565b565b6060600680548060200260200160405190810160405280929190818152602001828054801561077b57602002820191905f5260205f20905b81546001600160a01b0316815260019091019060200180831161075d575b5050505050905090565b60605f805461079390610fe5565b80601f01602080910402602001604051908101604052809291908181526020018280546107bf90610fe5565b801561077b5780601f106107e15761010080835404028352916020019161077b565b820191905f5260205f20905b8154815290600101906020018083116107ed57509395945050505050565b604080516080810182525f808252602082018190529181018290526060810191909152600d82815481106108415761084161101d565b5f918252602091829020604080516080810182526003939093029091018054835260018101546001600160e01b0316938301939093526002909201546001600160a01b03811692820192909252600160a01b90910465ffffffffffff16606082015292915050565b6040805160a0810182525f80825260208201819052918101829052606081018290526080810191909152600882815481106108e6576108e661101d565b5f9182526020918290206040805160a08101825260029390930290910180546001600160a01b0381168452600160a01b90046bffffffffffffffffffffffff908116948401949094526001015480841691830191909152600160601b81049092166060820152600160c01b90910462ffffff16608082015292915050565b60606002805480602002602001604051908101604052809291908181526020015f905b82821015610a42578382905f5260205f20016040518060200160405290815f820180546109b390610fe5565b80601f01602080910402602001604051908101604052809291908181526020018280546109df90610fe5565b8015610a2a5780601f10610a0157610100808354040283529160200191610a2a565b820191905f5260205f20905b815481529060010190602001808311610a0d57829003601f168201915b50505050508152505081526020019060010190610987565b50505050905090565b6008545f90610a5c90600190611045565b905090565b5f8060068381548110610a7657610a7661101d565b5f9182526020808320909101546001600160a01b03168083526003909152604090912054909462ffffff9091169350915050565b60408051602081019091526060815260028281548110610acc57610acc61101d565b905f5260205f20016040518060200160405290815f82018054610aee90610fe5565b80601f0160208091040260200160405190810160405280929190818152602001828054610b1a90610fe5565b8015610b655780601f10610b3c57610100808354040283529160200191610b65565b820191905f5260205f20905b815481529060010190602001808311610b4857829003601f168201915b5050505050815250509050919050565b604080516060810182525f8082526020820181905291810191909152600a8281548110610ba457610ba461101d565b5f9182526020918290206040805160608101825260029390930290910180548352600101546001600160e01b03811693830193909352600160e01b90920460ff1615159181019190915292915050565b600d545f90610a5c90600190611045565b600a545f90610a5c90600190611045565b6001600160a01b0381165f90815260036020908152604080832054600c83528184205465ffffffffffff16808552600b90935290832054600d54849362ffffff90931692919081610c68600183611045565b610c729190611045565b945060015b858111610cfb57620f424062ffffff8616600d610c948486611045565b81548110610ca457610ca461101d565b5f918252602090912060016003909202010154610cca91906001600160e01b031661105e565b610cd491906110a4565b610ce7906001600160e01b0316886110c9565b965080610cf3816110dc565b915050610c77565b5050505050915091565b6006545f90610a5c90600190611045565b6001600160a01b0381165f9081526005602052604081205462ffffff1615801590610d47575060045462ffffff1615155b15610d8a576004546001600160a01b0383165f90815260036020526040902054600e5462ffffff92831692610d7d9216906110f4565b610d87919061110b565b90505b919050565b5f670de0b6b3a7640000601154610a5c91906110f4565b5f7f00000000000000000000000000000000000000000000000000000000000000006001600160a01b031663e7addf706040518163ffffffff1660e01b8152600401602060405180830381865afa158015610e03573d5f803e3d5ffd5b505050506040513d601f19601f82011682018060405250810190610a5c919061111e565b365f80375f80365f845af43d5f803e808015610e41573d5ff35b3d5ffd5b6001600160a01b0381168114610e59575f80fd5b50565b5f60208284031215610e6c575f80fd5b8135610e7781610e45565b9392505050565b602080825282518282018190525f9190848201906040850190845b81811015610ebe5783516001600160a01b031683529284019291840191600101610e99565b50909695505050505050565b5f81518084525f5b81811015610eee57602081850181015186830182015201610ed2565b505f602082860101526020601f19601f83011685010191505092915050565b602081525f610e776020830184610eca565b5f60208284031215610f2f575f80fd5b5035919050565b5f602080830181845280855180835260408601915060408160051b87010192508387015f5b82811015610f9157878503603f19018452815151868652610f7e87870182610eca565b9550509285019290850190600101610f5b565b5092979650505050505050565b5f60208284031215610fae575f80fd5b813565ffffffffffff81168114610e77575f80fd5b602081525f8251602080840152610fdd6040840182610eca565b949350505050565b600181811c90821680610ff957607f821691505b60208210810361101757634e487b7160e01b5f52602260045260245ffd5b50919050565b634e487b7160e01b5f52603260045260245ffd5b634e487b7160e01b5f52601160045260245ffd5b8181038181111561105857611058611031565b92915050565b6001600160e01b0382811682821681810283169291811582850482141761108757611087611031565b50505092915050565b634e487b7160e01b5f52601260045260245ffd5b5f6001600160e01b03838116806110bd576110bd611090565b92169190910492915050565b8082018082111561105857611058611031565b5f600182016110ed576110ed611031565b5060010190565b808202811582820484141761105857611058611031565b5f8261111957611119611090565b500490565b5f6020828403121561112e575f80fd5b8151610e7781610e4556fea2646970667358221220c40f13fe805b847add19257756cafa556bf0063f4e3ac5c57ef95a3fbbf44cfd64736f6c63430008170033360894a13ba1a3210667c828492db98dca3e2076cc3735a920a3ca505d382bbcf0c57e16840df040f15088dc2f81fe391c3923bec73e23a9662efc9c229c6a00a2646970667358221220df9af980c94b6dbf502bc2be7fbb19ce7d7a3e55e8579f80c1aa96699c2b48eb64736f6c63430008170033","linkReferences":{}},"methodIdentifiers":{"UPGRADE_INTERFACE_VERSION()":"ad3cb1cc","createAssetInstance(string,string[],address[],uint24[],bytes32)":"65e0af5b","getAssetInstanceByHash(bytes32)":"f2d2d2fe","getAssetInstanceHashByAddress(address)":"02eaabca","getAssetInstanceImplementation()":"e7addf70","getAssetInstanceNumber()":"559dff30","getGlobalSettings()":"8cf515f4","initialize(address)":"c4d66de8","owner()":"8da5cb5b","proxiableUUID()":"52d1902d","reinitialize()":"6c2eb350","renounceOwnership()":"715018a6","sendTokenMintingOrder(address,address,uint256,uint256)":"0a0d3fff","setAssetInstanceImplementation(address)":"ed709051","setGlobalSettings(uint24,uint24,uint96)":"603cdfe2","transferOwnership(address)":"f2fde38b","upgradeToAndCall(address,bytes)":"4f1ef286","withdraw()":"3ccfd60b","withdrawTo(address,uint256)":"205c2878"},"id":81}