{"abi":[{"type":"constructor","inputs":[{"name":"_assetsFactoryAddr","type":"address","internalType":"address"}],"stateMutability":"nonpayable"},{"type":"function","name":"activateLicense","inputs":[{"name":"_licenseHash","type":"bytes32","internalType":"bytes32"},{"name":"_activate","type":"bool","internalType":"bool"}],"outputs":[],"stateMutability":"nonpayable"},{"type":"function","name":"buyShares","inputs":[{"name":"_from","type":"address","internalType":"address"},{"name":"_amount","type":"uint24","internalType":"uint24"},{"name":"_sellLimit","type":"uint96","internalType":"uint96"}],"outputs":[],"stateMutability":"payable"},{"type":"function","name":"cancelOffer","inputs":[],"outputs":[],"stateMutability":"nonpayable"},{"type":"function","name":"changeOffer","inputs":[{"name":"_newLimit","type":"uint96","internalType":"uint96"}],"outputs":[],"stateMutability":"nonpayable"},{"type":"function","name":"getAggregatedPrivilegedFees","inputs":[],"outputs":[{"name":"","type":"uint256","internalType":"uint256"}],"stateMutability":"view"},{"type":"function","name":"getAllAuthors","inputs":[],"outputs":[{"name":"","type":"tuple[]","internalType":"struct Asset_Structs.Author[]","components":[{"name":"name","type":"string","internalType":"string"}]}],"stateMutability":"view"},{"type":"function","name":"getAllPrivShareholders","inputs":[],"outputs":[{"name":"","type":"address[]","internalType":"address[]"}],"stateMutability":"view"},{"type":"function","name":"getAssetHash","inputs":[],"outputs":[{"name":"","type":"bytes32","internalType":"bytes32"}],"stateMutability":"view"},{"type":"function","name":"getAssetsFactoryAddr","inputs":[],"outputs":[{"name":"","type":"address","internalType":"address"}],"stateMutability":"view"},{"type":"function","name":"getAuthor","inputs":[{"name":"_index","type":"uint256","internalType":"uint256"}],"outputs":[{"name":"","type":"tuple","internalType":"struct Asset_Structs.Author","components":[{"name":"name","type":"string","internalType":"string"}]}],"stateMutability":"view"},{"type":"function","name":"getAuthorsLength","inputs":[],"outputs":[{"name":"","type":"uint256","internalType":"uint256"}],"stateMutability":"view"},{"type":"function","name":"getBalance","inputs":[{"name":"_addr","type":"address","internalType":"address"}],"outputs":[{"name":"","type":"uint256","internalType":"uint256"}],"stateMutability":"view"},{"type":"function","name":"getDividendToPay","inputs":[{"name":"_addr","type":"address","internalType":"address"}],"outputs":[{"name":"value","type":"uint256","internalType":"uint256"},{"name":"howMany","type":"uint256","internalType":"uint256"}],"stateMutability":"view"},{"type":"function","name":"getGovTokensMinted","inputs":[],"outputs":[{"name":"","type":"uint256","internalType":"uint256"}],"stateMutability":"view"},{"type":"function","name":"getLastBlockGovTokenMinted","inputs":[{"name":"_addr","type":"address","internalType":"address"}],"outputs":[{"name":"","type":"uint48","internalType":"uint48"}],"stateMutability":"view"},{"type":"function","name":"getLastDayOfDividendPayment","inputs":[{"name":"_addr","type":"address","internalType":"address"}],"outputs":[{"name":"","type":"uint48","internalType":"uint48"}],"stateMutability":"view"},{"type":"function","name":"getLicense","inputs":[{"name":"_index","type":"uint256","internalType":"uint256"}],"outputs":[{"name":"","type":"tuple","internalType":"struct Asset_Structs.License","components":[{"name":"licenseHash","type":"bytes32","internalType":"bytes32"},{"name":"value","type":"uint224","internalType":"uint224"},{"name":"active","type":"bool","internalType":"bool"}]}],"stateMutability":"view"},{"type":"function","name":"getLicensesIndex","inputs":[{"name":"_hash","type":"bytes32","internalType":"bytes32"}],"outputs":[{"name":"","type":"uint256","internalType":"uint256"}],"stateMutability":"view"},{"type":"function","name":"getLicensesLength","inputs":[],"outputs":[{"name":"","type":"uint256","internalType":"uint256"}],"stateMutability":"view"},{"type":"function","name":"getNameOfAsset","inputs":[],"outputs":[{"name":"","type":"string","internalType":"string"}],"stateMutability":"view"},{"type":"function","name":"getOffer","inputs":[{"name":"_index","type":"uint256","internalType":"uint256"}],"outputs":[{"name":"offer","type":"tuple","internalType":"struct Asset_Structs.Offer","components":[{"name":"from","type":"address","internalType":"address"},{"name":"value","type":"uint96","internalType":"uint96"},{"name":"ownerFee","type":"uint96","internalType":"uint96"},{"name":"privilegedFee","type":"uint96","internalType":"uint96"},{"name":"amount","type":"uint24","internalType":"uint24"}]}],"stateMutability":"view"},{"type":"function","name":"getOffersIndex","inputs":[{"name":"_addr","type":"address","internalType":"address"}],"outputs":[{"name":"","type":"uint24","internalType":"uint24"}],"stateMutability":"view"},{"type":"function","name":"getOffersLength","inputs":[],"outputs":[{"name":"","type":"uint256","internalType":"uint256"}],"stateMutability":"view"},{"type":"function","name":"getPayment","inputs":[{"name":"_index","type":"uint256","internalType":"uint256"}],"outputs":[{"name":"","type":"tuple","internalType":"struct Asset_Structs.Payment","components":[{"name":"licenseHash","type":"bytes32","internalType":"bytes32"},{"name":"paymentValue","type":"uint224","internalType":"uint224"},{"name":"payer","type":"address","internalType":"address"},{"name":"date","type":"uint48","internalType":"uint48"}]}],"stateMutability":"view"},{"type":"function","name":"getPaymentIndex","inputs":[{"name":"_timestamp","type":"uint48","internalType":"uint48"}],"outputs":[{"name":"","type":"uint256","internalType":"uint256"}],"stateMutability":"view"},{"type":"function","name":"getPaymentsLength","inputs":[],"outputs":[{"name":"","type":"uint256","internalType":"uint256"}],"stateMutability":"view"},{"type":"function","name":"getPrivilegedFees","inputs":[{"name":"_addr","type":"address","internalType":"address"}],"outputs":[{"name":"fees","type":"uint256","internalType":"uint256"}],"stateMutability":"view"},{"type":"function","name":"getPrivilegedShareholder","inputs":[{"name":"_index","type":"uint256","internalType":"uint256"}],"outputs":[{"name":"addr","type":"address","internalType":"address"},{"name":"share","type":"uint24","internalType":"uint24"}],"stateMutability":"view"},{"type":"function","name":"getPrivilegedShareholdersIndex","inputs":[{"name":"_addr","type":"address","internalType":"address"}],"outputs":[{"name":"","type":"uint24","internalType":"uint24"}],"stateMutability":"view"},{"type":"function","name":"getPrivilegedShareholdersLength","inputs":[],"outputs":[{"name":"length","type":"uint256","internalType":"uint256"}],"stateMutability":"view"},{"type":"function","name":"getShares","inputs":[{"name":"_addr","type":"address","internalType":"address"}],"outputs":[{"name":"","type":"uint24","internalType":"uint24"}],"stateMutability":"view"},{"type":"function","name":"getSharesInPrivilegedHands","inputs":[],"outputs":[{"name":"","type":"uint24","internalType":"uint24"}],"stateMutability":"view"},{"type":"function","name":"makeSellOffer","inputs":[{"name":"_amount","type":"uint24","internalType":"uint24"},{"name":"_price","type":"uint96","internalType":"uint96"}],"outputs":[],"stateMutability":"nonpayable"},{"type":"function","name":"payDividend","inputs":[{"name":"_addr","type":"address","internalType":"address"}],"outputs":[],"stateMutability":"nonpayable"},{"type":"function","name":"payEarndFeesToAllPrivileged","inputs":[],"outputs":[],"stateMutability":"nonpayable"},{"type":"function","name":"putNewLicense","inputs":[{"name":"_licenseHash","type":"bytes32","internalType":"bytes32"},{"name":"_value","type":"uint224","internalType":"uint224"}],"outputs":[],"stateMutability":"nonpayable"},{"type":"function","name":"signLicense","inputs":[{"name":"_licenseHash","type":"bytes32","internalType":"bytes32"}],"outputs":[],"stateMutability":"payable"},{"type":"function","name":"withdraw","inputs":[{"name":"_amount","type":"uint256","internalType":"uint256"}],"outputs":[],"stateMutability":"nonpayable"},{"type":"event","name":"DividendPaid","inputs":[{"name":"holder","type":"address","indexed":true,"internalType":"address"},{"name":"value","type":"uint256","indexed":false,"internalType":"uint256"},{"name":"numberOfPayments","type":"uint256","indexed":false,"internalType":"uint256"}],"anonymous":false},{"type":"event","name":"DividendPaidOnlyPartly","inputs":[{"name":"holder","type":"address","indexed":true,"internalType":"address"},{"name":"value","type":"uint256","indexed":false,"internalType":"uint256"},{"name":"numberOfPaymentsLeft","type":"uint256","indexed":false,"internalType":"uint256"}],"anonymous":false},{"type":"event","name":"EarndFeesToAllPrivileged","inputs":[{"name":"value","type":"uint256","indexed":false,"internalType":"uint256"}],"anonymous":false},{"type":"event","name":"GasLimitTooLow","inputs":[],"anonymous":false},{"type":"event","name":"GasUsage","inputs":[{"name":"gas","type":"uint256","indexed":false,"internalType":"uint256"}],"anonymous":false},{"type":"event","name":"GovTokensMinted","inputs":[{"name":"address_1","type":"address","indexed":true,"internalType":"address"},{"name":"address_2","type":"address","indexed":true,"internalType":"address"},{"name":"tokens_mined_1","type":"uint256","indexed":false,"internalType":"uint256"},{"name":"tokens_mined_2","type":"uint256","indexed":false,"internalType":"uint256"}],"anonymous":false},{"type":"event","name":"LicenseActivated","inputs":[{"name":"activator","type":"address","indexed":true,"internalType":"address"},{"name":"licenseHash","type":"bytes32","indexed":false,"internalType":"bytes32"}],"anonymous":false},{"type":"event","name":"LicenseDeactivated","inputs":[{"name":"remover","type":"address","indexed":true,"internalType":"address"},{"name":"licenseHash","type":"bytes32","indexed":false,"internalType":"bytes32"}],"anonymous":false},{"type":"event","name":"NewLicenseCreated","inputs":[{"name":"creator","type":"address","indexed":true,"internalType":"address"}],"anonymous":false},{"type":"event","name":"NewPayment","inputs":[{"name":"payer","type":"address","indexed":true,"internalType":"address"},{"name":"licenseHash","type":"bytes32","indexed":false,"internalType":"bytes32"}],"anonymous":false},{"type":"event","name":"OfferCancelled","inputs":[{"name":"from","type":"address","indexed":true,"internalType":"address"}],"anonymous":false},{"type":"event","name":"OfferChanged","inputs":[{"name":"from","type":"address","indexed":true,"internalType":"address"},{"name":"value","type":"uint256","indexed":false,"internalType":"uint256"}],"anonymous":false},{"type":"event","name":"SellOfferPut","inputs":[{"name":"from","type":"address","indexed":true,"internalType":"address"},{"name":"amount","type":"uint256","indexed":false,"internalType":"uint256"},{"name":"value","type":"uint256","indexed":false,"internalType":"uint256"}],"anonymous":false},{"type":"event","name":"SharesBought","inputs":[{"name":"from","type":"address","indexed":true,"internalType":"address"},{"name":"value","type":"uint256","indexed":false,"internalType":"uint256"},{"name":"to","type":"address","indexed":true,"internalType":"address"},{"name":"amount","type":"uint256","indexed":false,"internalType":"uint256"}],"anonymous":false},{"type":"event","name":"Withdrawal","inputs":[{"name":"user","type":"address","indexed":true,"internalType":"address"},{"name":"amount","type":"uint256","indexed":false,"internalType":"uint256"}],"anonymous":false},{"type":"error","name":"ReentrancyGuardReentrantCall","inputs":[]},{"type":"error","name":"SafeCastOverflowedUintDowncast","inputs":[{"name":"bits","type":"uint8","internalType":"uint8"},{"name":"value","type":"uint256","internalType":"uint256"}]},{"type":"error","name":"UnauthorizedCallContext","inputs":[]},{"type":"error","name":"WithdrawLockActive","inputs":[]}],"bytecode":{"object":"0x60c06040526004805462ffffff1916620f42401790553060a05234801562000025575f80fd5b5060405162003a2138038062003a2183398101604081905262000048916200007e565b60017f1a3ec93f04d0f96b08a4468207ca4305ed8933001884f7cc46e4cedd7ccfa8d9556001600160a01b0316608052620000ad565b5f602082840312156200008f575f80fd5b81516001600160a01b0381168114620000a6575f80fd5b9392505050565b60805160a05161392f620000f25f395f61296d01525f818161043a0152818161153e01528181611cc30152818161270701528181612f830152613208015261392f5ff3fe60806040526004361061021c575f3560e01c8063a6164ec61161011e578063d9b373ef116100a8578063e8b8ccec1161006d578063e8b8ccec146107ba578063f04da65b146107ce578063f4413bcc14610807578063f8b2cb4f1461081b578063fc496d6f1461084f575f80fd5b8063d9b373ef1461072f578063da126eee14610743578063deb9cbbc1461075c578063e1ad79b81461077b578063e64be6fd1461078f575f80fd5b8063b8e0ffbe116100ee578063b8e0ffbe14610687578063be3c8ded1461069b578063c7870516146106ae578063d093bfbb146106e7578063d15b1e9a146106fb575f80fd5b8063a6164ec6146105c7578063a9a0c7e4146105da578063ac269353146105ee578063b2dd12121461063b575f80fd5b8063490d9e2d116101aa5780637fffd4011161016f5780637fffd401146104cb57806382121da5146104fe5780639e2b8488146105405780639f27e8201461056c578063a4210aea146105a8575f80fd5b8063490d9e2d146104215780635a28f041146104645780635d7869e41461048257806362d05c78146104a357806373c2dc12146104b7575f80fd5b8063312220ba116101f0578063312220ba146102d9578063314b6a96146102f85780633280a8361461031957806339247888146103855780634579268a146103a4575f80fd5b80628cb3a414610220578063220dfdd6146102785780632be87861146102995780632e1a7d4d146102ba575b5f80fd5b34801561022b575f80fd5b5061025c61023a36600461335a565b6001600160a01b03165f9081526010602052604090205465ffffffffffff1690565b60405165ffffffffffff90911681526020015b60405180910390f35b348015610283575f80fd5b5061029761029236600461337a565b61086e565b005b3480156102a4575f80fd5b506102ad6109b1565b60405161026f91906133ac565b3480156102c5575f80fd5b506102976102d43660046133f8565b610a11565b3480156102e4575f80fd5b506102976102f336600461335a565b610bea565b348015610303575f80fd5b5061030c610f22565b60405161026f9190613452565b348015610324575f80fd5b506103386103333660046133f8565b610fa8565b60405161026f9190815181526020808301516001600160e01b0316908201526040808301516001600160a01b03169082015260609182015165ffffffffffff169181019190915260800190565b348015610390575f80fd5b5061029761039f366004613464565b611046565b3480156103af575f80fd5b506103c36103be3660046133f8565b6111ba565b60405161026f919081516001600160a01b031681526020808301516001600160601b03908116918301919091526040808401518216908301526060808401519091169082015260809182015162ffffff169181019190915260a00190565b34801561042c575f80fd5b506040516001600160a01b037f000000000000000000000000000000000000000000000000000000000000000016815260200161026f565b34801561046f575f80fd5b506002545b60405190815260200161026f565b34801561048d575f80fd5b50610496611270565b60405161026f9190613492565b3480156104ae575f80fd5b50610297611357565b3480156104c2575f80fd5b50610474611409565b3480156104d6575f80fd5b506104746104e53660046134fa565b65ffffffffffff165f908152600b602052604090205490565b348015610509575f80fd5b5061051d6105183660046133f8565b61141f565b604080516001600160a01b03909316835262ffffff90911660208301520161026f565b34801561054b575f80fd5b5061055f61055a3660046133f8565b611468565b60405161026f919061351f565b348015610577575f80fd5b5061025c61058636600461335a565b6001600160a01b03165f908152600c602052604090205465ffffffffffff1690565b3480156105b3575f80fd5b506102976105c2366004613565565b611533565b6102976105d53660046133f8565b61192d565b3480156105e5575f80fd5b50600e54610474565b3480156105f9575f80fd5b5061062761060836600461335a565b6001600160a01b03165f9081526005602052604090205462ffffff1690565b60405162ffffff909116815260200161026f565b348015610646575f80fd5b5061065a6106553660046133f8565b611c28565b60408051825181526020808401516001600160e01b0316908201529181015115159082015260600161026f565b348015610692575f80fd5b50610474611ca7565b6102976106a9366004613591565b611cb8565b3480156106b9575f80fd5b506106276106c836600461335a565b6001600160a01b03165f9081526007602052604090205462ffffff1690565b3480156106f2575f80fd5b50610474612358565b348015610706575f80fd5b5061071a61071536600461335a565b612369565b6040805192835260208301919091520161026f565b34801561073a575f80fd5b50610474612458565b34801561074e575f80fd5b5060045462ffffff16610627565b348015610767575f80fd5b5061047461077636600461335a565b612469565b348015610786575f80fd5b506104746124e2565b34801561079a575f80fd5b506104746107a93660046133f8565b5f9081526009602052604090205490565b3480156107c5575f80fd5b506102976124f9565b3480156107d9575f80fd5b506106276107e836600461335a565b6001600160a01b03165f9081526003602052604090205462ffffff1690565b348015610812575f80fd5b50600154610474565b348015610826575f80fd5b5061047461083536600461335a565b6001600160a01b03165f908152600f602052604090205490565b34801561085a575f80fd5b506102976108693660046135d7565b6126fc565b610876612963565b61087f336129ae565b6108a45760405162461bcd60e51b815260040161089b906135f2565b60405180910390fd5b5f8281526009602052604081205490036108f25760405162461bcd60e51b815260206004820152600f60248201526e4e6f2073756368206c6963656e736560881b604482015260640161089b565b5f82815260096020526040902054600a805483929081106109155761091561361a565b905f5260205f209060020201600101601c6101000a81548160ff021916908315150217905550801561097b5760405182815233907fd0fee6d3c07602243bbc348f34f8f10e42b7449e234d1a5c683d687d392f2222906020015b60405180910390a25050565b60405182815233907fbc2444d99cb94579869d18f852c652b1c34f8f461d96ee9b684d316cfa1f324c9060200161096f565b5050565b60606006805480602002602001604051908101604052809291908181526020018280548015610a0757602002820191905f5260205f20905b81546001600160a01b031681526001909101906020018083116109e9575b5050505050905090565b610a19612963565b610a216129df565b335f9081526010602052604090205465ffffffffffff168015801590610a6a5750610a5762f099c065ffffffffffff8316613642565b610a5f612a47565b65ffffffffffff1611155b15610a8857604051637230afbf60e01b815260040160405180910390fd5b335f908152600f6020526040902054821115610add5760405162461bcd60e51b8152602060048201526014602482015273496e73756666696369656e742062616c616e636560601b604482015260640161089b565b335f908152600f602052604081208054849290610afb90849061365b565b90915550506040515f90339084908381818185875af1925050503d805f8114610b3f576040519150601f19603f3d011682016040523d82523d5f602084013e610b44565b606091505b5050905080610b875760405162461bcd60e51b815260206004820152600f60248201526e151c985b9cd9995c8819985a5b1959608a1b604482015260640161089b565b60405183815233907f7fcf532c15f0a6db0bd6d0e038bea71d30d808c7d98cb3bf7268a95bf5081b659060200160405180910390a25050610be760017f1a3ec93f04d0f96b08a4468207ca4305ed8933001884f7cc46e4cedd7ccfa8d955565b50565b610bf2612963565b6001600160a01b0381165f9081526003602052604081205462ffffff1690819003610c535760405162461bcd60e51b81526020600482015260116024820152702737ba10309039b430b932b437b63232b960791b604482015260640161089b565b600d545f610c6260018361365b565b11610c9d5760405162461bcd60e51b815260206004820152600b60248201526a4e6f207061796d656e747360a81b604482015260640161089b565b6001600160a01b0383165f908152600c602090815260408083205465ffffffffffff16808452600b9092529091205480610cd860018561365b565b11610d145760405162461bcd60e51b815260206004820152600c60248201526b4e6f206469766964656e647360a01b604482015260640161089b565b5f808080610d23856001613642565b90505b86811015610e69575f600d8281548110610d4257610d4261361a565b5f9182526020918290206040805160808101825260039093029091018054835260018101546001600160e01b0316938301849052600201546001600160a01b0381169183019190915265ffffffffffff600160a01b9091041660608201529150620f424090610db79062ffffff8c169061366e565b610dc191906136b4565b610dd4906001600160e01b031686613642565b6060820151909550935061fde85a108015610df85750610df560018961365b565b82105b15610e6057600192506001600160a01b038a167f92f645b5bc44d24b0c39900d212e2bbf9ea93554ad711d0cabdd3356b748c5248684610e38878d61365b565b610e42919061365b565b6040805192835260208301919091520160405180910390a250610e69565b50600101610d26565b506001600160a01b0388165f908152600c60209081526040808320805465ffffffffffff191665ffffffffffff8716179055600f90915281208054859290610eb2908490613642565b90915550819050610f18576001600160a01b0388167f206f1eb9ef4c0160b410eb801b061a0e2f2d88675457ecce8470fe913470cc248486610ef560018b61365b565b610eff919061365b565b6040805192835260208301919091520160405180910390a25b5050505050505050565b60605f8054610f30906136d9565b80601f0160208091040260200160405190810160405280929190818152602001828054610f5c906136d9565b8015610a075780601f10610f7e57610100808354040283529160200191610a07565b820191905f5260205f20905b815481529060010190602001808311610f8a57509395945050505050565b604080516080810182525f808252602082018190529181018290526060810191909152600d8281548110610fde57610fde61361a565b5f918252602091829020604080516080810182526003939093029091018054835260018101546001600160e01b0316938301939093526002909201546001600160a01b03811692820192909252600160a01b90910465ffffffffffff16606082015292915050565b61104e612963565b611057336129ae565b6110735760405162461bcd60e51b815260040161089b906135f2565b5f82815260096020526040902054156110c45760405162461bcd60e51b815260206004820152601360248201527254686973206c6963656e73652065786973747360681b604482015260640161089b565b604080516060810182528381526001600160e01b03808416602083019081526001938301848152600a805480870182555f829052855160029091027fc65a7bb8d6351c1cf70c95a316cc6a92839c986682d98bc35f958f4883f9d2a881019190915592517fc65a7bb8d6351c1cf70c95a316cc6a92839c986682d98bc35f958f4883f9d2a9909301805492511515600160e01b026001600160e81b031990931693909416929092171790915554909161117c9161365b565b5f8481526009602052604080822092909255905133917f4fe55076732aeee5b0b34caa2e47a4706ba2a2b842f39af671999a210399093591a2505050565b6040805160a0810182525f80825260208201819052918101829052606081018290526080810191909152600882815481106111f7576111f761361a565b5f9182526020918290206040805160a08101825260029390930290910180546001600160a01b0381168452600160a01b90046001600160601b03908116948401949094526001015480841691830191909152600160601b81049092166060820152600160c01b90910462ffffff16608082015292915050565b60606002805480602002602001604051908101604052809291908181526020015f905b8282101561134e578382905f5260205f20016040518060200160405290815f820180546112bf906136d9565b80601f01602080910402602001604051908101604052809291908181526020018280546112eb906136d9565b80156113365780601f1061130d57610100808354040283529160200191611336565b820191905f5260205f20905b81548152906001019060200180831161131957829003601f168201915b50505050508152505081526020019060010190611293565b50505050905090565b61135f612963565b611368336129ae565b6113845760405162461bcd60e51b815260040161089b906135f2565b5f8061138f33612a51565b91509150816113cb5760405162461bcd60e51b815260206004820152600860248201526727379037b33332b960c11b604482015260640161089b565b81156109ad576113db8133612a8c565b60405133907f58c450e79e079445cb4236ae6f118053d819a6d6477d4b4e91b3552a8ef00fc8905f90a25050565b6008545f9061141a9060019061365b565b905090565b5f80600683815481106114345761143461361a565b5f9182526020808320909101546001600160a01b03168083526003909152604090912054909462ffffff9091169350915050565b6040805160208101909152606081526002828154811061148a5761148a61361a565b905f5260205f20016040518060200160405290815f820180546114ac906136d9565b80601f01602080910402602001604051908101604052809291908181526020018280546114d8906136d9565b80156115235780601f106114fa57610100808354040283529160200191611523565b820191905f5260205f20905b81548152906001019060200180831161150657829003601f168201915b5050505050815250509050919050565b61153b612963565b5f7f00000000000000000000000000000000000000000000000000000000000000006001600160a01b0316638cf515f46040518163ffffffff1660e01b8152600401606060405180830381865afa158015611598573d5f803e3d5ffd5b505050506040513d601f19601f820116820180604052508101906115bc9190613711565b90506115c7336129ae565b6116135760405162461bcd60e51b815260206004820152601a60248201527f4e6f742070726976696c65676564205368617265686f6c646572000000000000604482015260640161089b565b5f8362ffffff16116116525760405162461bcd60e51b81526020600482015260086024820152670416d6f756e7420360c41b604482015260640161089b565b335f9081526003602052604090205462ffffff90811690841611156116ad5760405162461bcd60e51b81526020600482015260116024820152704e6f7420656e6f7567682073686172657360781b604482015260640161089b565b80604001516001600160601b0316826001600160601b031610156117055760405162461bcd60e51b815260206004820152600f60248201526e141c9a58d9481d1bdbc81cdb585b1b608a1b604482015260640161089b565b5f8061171033612a51565b915091508115611724576117248133612a8c565b6040805160a0810182523381526001600160601b0386166020808301919091528501515f9282019062ffffff1661175d6127108961378d565b61176791906137a6565b6001600160601b0390811682525f602080840182905262ffffff808c166040958601526008805460018181018355948290528751938801518616600160a01b026001600160a01b039094169390931760029093027ff3f7a9fe364faab93b216da50a3214154f22a0a2b415b23a84c8169e8b636ee3810193909355948601517ff3f7a9fe364faab93b216da50a3214154f22a0a2b415b23a84c8169e8b636ee4909201805460608801516080890151909316600160c01b0262ffffff60c01b19938716600160601b026001600160c01b03199092169490961693909317929092171692909217909155905491925061185e9161365b565b60075f336001600160a01b03166001600160a01b031681526020019081526020015f205f6101000a81548162ffffff021916908362ffffff160217905550336001600160a01b03167f88bb950d509b5e69b278cdb44ce0f37c61d98c6beed74a4c852a2b88a050d7938783606001516001600160601b031684604001516001600160601b031685602001516001600160601b03166118fc9190613642565b6119069190613642565b6040805162ffffff90931683526020830191909152015b60405180910390a2505050505050565b611935612963565b5f81815260096020526040812054908190036119835760405162461bcd60e51b815260206004820152600d60248201526c111bd95cdb89dd08195e1a5cdd609a1b604482015260640161089b565b5f600a82815481106119975761199761361a565b5f91825260209182902060408051606081018252600293909302909101805483526001908101546001600160e01b03811694840194909452600160e01b90930460ff16151590820181905290925014611a1f5760405162461bcd60e51b815260206004820152600a6024820152694e6f742061637469766560b01b604482015260640161089b565b3481602001516001600160e01b031614611a685760405162461bcd60e51b815260206004820152600a60248201526909cdee840cadcdeeaced60b31b604482015260640161089b565b600d8054905f90611a7a60018461365b565b81548110611a8a57611a8a61361a565b5f91825260209091206002600390920201015465ffffffffffff600160a01b90910481169150429081168210611ae0575f611ac582846137d1565b9050611ad28160016137f7565b611adc90836137f7565b9150505b60408051608081018252878152346001600160e01b03908116602080840191825265ffffffffffff86811660608601818152338789018181525f938452600b86528984208d9055600d8054600181018255945288517fd7b6990105719101dabeb77144f2a3385c8033acd3af97e9423a695e81ad1eb560039095029485015595517fd7b6990105719101dabeb77144f2a3385c8033acd3af97e9423a695e81ad1eb6840180546001600160e01b031916919098161790965593517fd7b6990105719101dabeb77144f2a3385c8033acd3af97e9423a695e81ad1eb7909101805494516001600160a01b039092166001600160d01b031990951694909417600160a01b9190921602179091559251898152919290917f183bcb9a455c3eab24d18674b1ab42ac57160144f006d6b05c42dab622b16b12910160405180910390a250505050505050565b604080516060810182525f8082526020820181905291810191909152600a8281548110611c5757611c5761361a565b5f9182526020918290206040805160608101825260029390930290910180548352600101546001600160e01b03811693830193909352600160e01b90920460ff1615159181019190915292915050565b600d545f9061141a9060019061365b565b611cc0612963565b5f7f00000000000000000000000000000000000000000000000000000000000000006001600160a01b0316638cf515f46040518163ffffffff1660e01b8152600401606060405180830381865afa158015611d1d573d5f803e3d5ffd5b505050506040513d601f19601f82011682018060405250810190611d419190613711565b6001600160a01b0385165f9081526007602052604081205460088054939450919262ffffff909116908110611d7857611d7861361a565b5f91825260208083206040805160a081018252600290940290910180546001600160a01b03811685526001600160601b03600160a01b9091048116938501939093526001015480831691840191909152600160601b8104909116606083015262ffffff600160c01b90910416608082018190529092509003611e265760405162461bcd60e51b815260206004820152600760248201526604f6666657220360cc1b604482015260640161089b565b8362ffffff165f03611e655760405162461bcd60e51b81526020600482015260086024820152670416d6f756e7420360c41b604482015260640161089b565b806080015162ffffff168462ffffff161115611ec35760405162461bcd60e51b815260206004820152601e60248201527f416d6f756e74206578636565647320617661696c61626c652076616c75650000604482015260640161089b565b81604001516001600160601b0316836001600160601b03161015611f1f5760405162461bcd60e51b815260206004820152601360248201527214d95b1b131a5b5a5d081d1bdbc81cdb585b1b606a1b604482015260640161089b565b600d54611f2d60018261365b565b6001600160a01b0387165f908152600c602090815260408083205465ffffffffffff168352600b90915290205414611fa75760405162461bcd60e51b815260206004820152601b60248201527f4f666665726f7220686173206469766964656e6420746f207061790000000000604482015260640161089b565b335f9081526003602052604090205462ffffff161561203c57611fcb60018261365b565b335f908152600c602090815260408083205465ffffffffffff168352600b9091529020541461203c5760405162461bcd60e51b815260206004820152601960248201527f427579657220686173206469766964656e6420746f2070617900000000000000604482015260640161089b565b6001600160a01b0386165f9081526005602052604090205462ffffff16156120bd57600e54156120bd5760405162461bcd60e51b815260206004820152602660248201527f50726976696c65676564204f666665726f7220686173206665657320746f20636044820152651bdb1b1958dd60d21b606482015260840161089b565b335f9081526005602052604090205462ffffff161561213257600e54156121325760405162461bcd60e51b8152602060048201526024808201527f50726976696c6567656420427579657220686173206665657320746f20636f6c6044820152631b1958dd60e21b606482015260840161089b565b3482606001516001600160601b03168662ffffff166121519190613816565b604084015161216e906001600160601b031662ffffff8916613816565b602085015161218b906001600160601b031662ffffff8a16613816565b6121959190613642565b61219f9190613642565b146121e15760405162461bcd60e51b815260206004820152601260248201527115dc9bdb99c8195d1a195c88185b5bdd5b9d60721b604482015260640161089b565b5f612286600d6121f260018561365b565b815481106122025761220261361a565b905f5260205f20906003020160020160149054906101000a900465ffffffffffff1688888687602001518b62ffffff1661223c91906137a6565b6001600160601b031688604001518c62ffffff1661225a91906137a6565b6001600160601b031689606001518d62ffffff1661227891906137a6565b6001600160601b0316612c94565b335f9081526005602052604081205491925062ffffff90911690036122d2575f806122b033612a51565b9150915081156122c4576122c48133612a8c565b6122cf83888861300a565b50505b336001600160a01b0316876001600160a01b03167fe7d01db63fe32fd55900169f0e1e4c2a0519400dcc1bb1d822030e14c17d91ee856060015186604001518760200151612320919061382d565b61232a919061382d565b604080516001600160601b03909216825262ffffff8b1660208301520160405180910390a350505050505050565b600a545f9061141a9060019061365b565b6001600160a01b0381165f90815260036020908152604080832054600c83528184205465ffffffffffff16808552600b90935290832054600d54849362ffffff909316929190816123bb60018361365b565b6123c5919061365b565b945060015b85811161244e57620f424062ffffff8616600d6123e7848661365b565b815481106123f7576123f761361a565b5f91825260209091206001600390920201015461241d91906001600160e01b031661366e565b61242791906136b4565b61243a906001600160e01b031688613642565b9650806124468161384d565b9150506123ca565b5050505050915091565b6006545f9061141a9060019061365b565b6001600160a01b0381165f9081526005602052604081205462ffffff161580159061249a575060045462ffffff1615155b156124dd576004546001600160a01b0383165f90815260036020526040902054600e5462ffffff928316926124d0921690613816565b6124da9190613865565b90505b919050565b5f670de0b6b3a764000060115461141a9190613816565b612501612963565b60045462ffffff165f8190036125495760405162461bcd60e51b815260206004820152600d60248201526c07072697620736861726573203609c1b604482015260640161089b565b600e546006545f8060015b838110156126bd575f600682815481106125705761257061361a565b5f9182526020808320909101546001600160a01b03168083526003909152604090912054909150879062ffffff166125aa88612710613816565b6125b49190613816565b6125be9190613865565b93506125cc61271085613878565b6125d69084613642565b92506125e360018661365b565b82036125f6576125f38385613642565b93505b61260261271085613865565b6001600160a01b0382165f908152600f602052604081208054929650869290919061262e908490613642565b909155506188b890505a10801561264e575061264b60018661365b565b82105b156126b4576040517fed43c3a69b314df5bce2d789c2a2072576bf24e99e779f1e90d2c2ad699eb7b2905f90a160405162461bcd60e51b815260206004820152600e60248201526d4e6f7420656e6f7567682067617360901b604482015260640161089b565b50600101612554565b505f600e556040518481527fd0d8cce5b97bc10519a18d46c16f5d58ac28819ec6c5ebabffad51bc791378b19060200160405180910390a15050505050565b612704612963565b5f7f00000000000000000000000000000000000000000000000000000000000000006001600160a01b0316638cf515f46040518163ffffffff1660e01b8152600401606060405180830381865afa158015612761573d5f803e3d5ffd5b505050506040513d601f19601f820116820180604052508101906127859190613711565b335f9081526007602052604081205491925062ffffff909116908190036127da5760405162461bcd60e51b81526020600482015260096024820152684e6f206f666665727360b81b604482015260640161089b565b81604001516001600160601b0316836001600160601b031610156128365760405162461bcd60e51b815260206004820152601360248201527214d95b1b131a5b5a5d081d1bdbc81cdb585b1b606a1b604482015260640161089b565b60208201515f9062ffffff1661284e6127108661378d565b61285891906137a6565b83519091505f9062ffffff166128706127108761378d565b61287a91906137a6565b90505f60088462ffffff16815481106128955761289561361a565b5f91825260208220600291909102016001810154909250600160601b90046001600160601b031690036128c6575f91505b80546001600160a01b0316600160a01b6001600160601b038881168202929092178084556001840180548785166001600160c01b031990911617600160601b8786168102919091179182905533947f4bdb733153bc1af7e1a8c327d8533eec421d7b400b9f781d97cc5500d8ad8f049491830481169361294b93821692900416613642565b6129559190613642565b60405190815260200161191d565b6001600160a01b037f00000000000000000000000000000000000000000000000000000000000000001630036129ac57604051634f81d01360e11b815260040160405180910390fd5b565b6001600160a01b0381165f9081526005602052604081205462ffffff16156129d857506001919050565b505f919050565b60027f1a3ec93f04d0f96b08a4468207ca4305ed8933001884f7cc46e4cedd7ccfa8d95403612a2157604051633ee5aeb560e01b815260040160405180910390fd5b60027f1a3ec93f04d0f96b08a4468207ca4305ed8933001884f7cc46e4cedd7ccfa8d955565b5f61141a43613195565b6001600160a01b0381165f90815260076020526040812054819062ffffff168015612a8157600194909350915050565b505f93849350915050565b60085462ffffff83168111612ad95760405162461bcd60e51b8152602060048201526013602482015272496e646578206f7574206f6620626f756e647360681b604482015260640161089b565b80600214612c32575f6008612aef60018461365b565b81548110612aff57612aff61361a565b5f9182526020909120600290910201546001600160a01b031690506008612b2760018461365b565b81548110612b3757612b3761361a565b905f5260205f20906002020160088562ffffff1681548110612b5b57612b5b61361a565b5f918252602080832084546002939093020180546001600160a01b039384166001600160a01b0319909116811782558554600160a01b908190046001600160601b039081169091029091178255600195860180549690920180549682166bffffffffffffffffffffffff1988168117825583546001600160c01b031990981617600160601b9788900490921690960217808655905462ffffff60c01b19909116600160c01b9182900462ffffff908116909202179094559316815260079092526040909120805462ffffff19169185169190911790555b6008805480612c4357612c4361388b565b5f828152602080822060025f199094019384020182815560010180546001600160d81b0319169055919092556001600160a01b0393909316815260079092525060409020805462ffffff1916905550565b6001600160a01b0386165f90815260036020526040812080548791908390612cc290849062ffffff1661389f565b92506101000a81548162ffffff021916908362ffffff1602179055508585608001818151612cf0919061389f565b62ffffff908116909152335f90815260036020526040902054169050612d1687826138bb565b91508062ffffff165f03612d4a57335f908152600c60205260409020805465ffffffffffff191665ffffffffffff8b161790555b335f9081526003602052604081208054899290612d6d90849062ffffff166138bb565b92506101000a81548162ffffff021916908362ffffff160217905550856080015162ffffff165f03612dc5576001600160a01b0388165f90815260076020526040902054612dc09062ffffff1689612a8c565b612e83565b6001600160a01b0388165f9081526007602052604090205460088054889262ffffff16908110612df757612df761361a565b5f9182526020918290208351928401516001600160601b03908116600160a01b026001600160a01b0390941693909317600290920201908155604083015160019091018054606085015160809095015162ffffff16600160c01b0262ffffff60c01b19958516600160601b026001600160c01b0319909216939094169290921791909117929092161790555b6001600160a01b0388165f908152600f602052604081208054879290612eaa908490613642565b9250508190555082600e5f828254612ec29190613642565b9091555050335f90815260056020526040808220546001600160a01b038b16835291205462ffffff918216151591161515808214612f80578015612f4a57600480548a91905f90612f1990849062ffffff1661389f565b92506101000a81548162ffffff021916908362ffffff160217905550612f45338b8b62ffffff166131cb565b612f80565b600480548a91905f90612f6390849062ffffff166138bb565b92506101000a81548162ffffff021916908362ffffff1602179055505b5f7f00000000000000000000000000000000000000000000000000000000000000006001600160a01b0316876040515f6040518083038185875af1925050503d805f8114612fe9576040519150601f19603f3d011682016040523d82523d5f602084013e612fee565b606091505b5050905080612ffb575f80fd5b50505050979650505050505050565b6040805160a0810182523381526001600160601b0384166020808301919091528301515f9282019062ffffff166130436127108761378d565b61304d91906137a6565b6001600160601b03168152835160209091019062ffffff166130716127108761378d565b61307b91906137a6565b6001600160601b03908116825262ffffff80881660209384015260088054600181810183555f8390528651958701518516600160a01b026001600160a01b039096169590951760029091027ff3f7a9fe364faab93b216da50a3214154f22a0a2b415b23a84c8169e8b636ee381019190915560408601517ff3f7a9fe364faab93b216da50a3214154f22a0a2b415b23a84c8169e8b636ee4909101805460608801516080890151909516600160c01b0262ffffff60c01b19958716600160601b026001600160c01b0319909216939096169290921791909117929092169290921790555491925061316b9161365b565b335f908152600760205260409020805462ffffff191662ffffff9290921691909117905550505050565b5f65ffffffffffff8211156131c7576040516306dfcc6560e41b8152603060048201526024810183905260440161089b565b5090565b601154604051630a0d3fff60e01b81526001600160a01b03858116600483015284811660248301526044820184905260648201929092525f9182917f000000000000000000000000000000000000000000000000000000000000000090911690630a0d3fff9060840160408051808303815f875af115801561324f573d5f803e3d5ffd5b505050506040513d601f19601f8201168201806040525081019061327391906138d7565b909250905080156132ba57613286612a47565b6001600160a01b0385165f908152601060205260409020805465ffffffffffff191665ffffffffffff929092169190911790555b5f6132c58284613642565b111561333d576132d3612a47565b506132de8183613642565b60115f8282546132ee9190613642565b909155505060408051838152602081018390526001600160a01b0380871692908816917ffaa925962100d6fb8048bd79cc7e027144f4d4b4dba4119f92ed0866cf1536dc910160405180910390a35b5050505050565b80356001600160a01b03811681146124dd575f80fd5b5f6020828403121561336a575f80fd5b61337382613344565b9392505050565b5f806040838503121561338b575f80fd5b82359150602083013580151581146133a1575f80fd5b809150509250929050565b602080825282518282018190525f9190848201906040850190845b818110156133ec5783516001600160a01b0316835292840192918401916001016133c7565b50909695505050505050565b5f60208284031215613408575f80fd5b5035919050565b5f81518084525f5b8181101561343357602081850181015186830182015201613417565b505f602082860101526020601f19601f83011685010191505092915050565b602081525f613373602083018461340f565b5f8060408385031215613475575f80fd5b8235915060208301356001600160e01b03811681146133a1575f80fd5b5f602080830181845280855180835260408601915060408160051b87010192508387015f5b828110156134ed57878503603f190184528151518686526134da8787018261340f565b95505092850192908501906001016134b7565b5092979650505050505050565b5f6020828403121561350a575f80fd5b813565ffffffffffff81168114613373575f80fd5b602081525f8251602080840152613539604084018261340f565b949350505050565b62ffffff81168114610be7575f80fd5b6001600160601b0381168114610be7575f80fd5b5f8060408385031215613576575f80fd5b823561358181613541565b915060208301356133a181613551565b5f805f606084860312156135a3575f80fd5b6135ac84613344565b925060208401356135bc81613541565b915060408401356135cc81613551565b809150509250925092565b5f602082840312156135e7575f80fd5b813561337381613551565b6020808252600e908201526d139bdd081c1c9a5d9a5b1959d95960921b604082015260600190565b634e487b7160e01b5f52603260045260245ffd5b634e487b7160e01b5f52601160045260245ffd5b808201808211156136555761365561362e565b92915050565b818103818111156136555761365561362e565b6001600160e01b038281168282168181028316929181158285048214176136975761369761362e565b50505092915050565b634e487b7160e01b5f52601260045260245ffd5b5f6001600160e01b03838116806136cd576136cd6136a0565b92169190910492915050565b600181811c908216806136ed57607f821691505b60208210810361370b57634e487b7160e01b5f52602260045260245ffd5b50919050565b5f60608284031215613721575f80fd5b6040516060810181811067ffffffffffffffff8211171561375057634e487b7160e01b5f52604160045260245ffd5b604052825161375e81613541565b8152602083015161376e81613541565b6020820152604083015161378181613551565b60408201529392505050565b5f6001600160601b03808416806136cd576136cd6136a0565b6001600160601b038181168382160280821691908281146137c9576137c961362e565b505092915050565b65ffffffffffff8281168282160390808211156137f0576137f061362e565b5092915050565b65ffffffffffff8181168382160190808211156137f0576137f061362e565b80820281158282048414176136555761365561362e565b6001600160601b038181168382160190808211156137f0576137f061362e565b5f6001820161385e5761385e61362e565b5060010190565b5f82613873576138736136a0565b500490565b5f82613886576138866136a0565b500690565b634e487b7160e01b5f52603160045260245ffd5b62ffffff8281168282160390808211156137f0576137f061362e565b62ffffff8181168382160190808211156137f0576137f061362e565b5f80604083850312156138e8575f80fd5b50508051602090910151909290915056fea26469706673582212205c4d5a6efbed8296d6690163ad1ff390cd1c02311869067f8a3659d5ab80df0f64736f6c63430008170033","linkReferences":{}},"methodIdentifiers":{"activateLicense(bytes32,bool)":"220dfdd6","buyShares(address,uint24,uint96)":"be3c8ded","cancelOffer()":"62d05c78","changeOffer(uint96)":"fc496d6f","getAggregatedPrivilegedFees()":"a9a0c7e4","getAllAuthors()":"5d7869e4","getAllPrivShareholders()":"2be87861","getAssetHash()":"f4413bcc","getAssetsFactoryAddr()":"490d9e2d","getAuthor(uint256)":"9e2b8488","getAuthorsLength()":"5a28f041","getBalance(address)":"f8b2cb4f","getDividendToPay(address)":"d15b1e9a","getGovTokensMinted()":"e1ad79b8","getLastBlockGovTokenMinted(address)":"008cb3a4","getLastDayOfDividendPayment(address)":"9f27e820","getLicense(uint256)":"b2dd1212","getLicensesIndex(bytes32)":"e64be6fd","getLicensesLength()":"d093bfbb","getNameOfAsset()":"314b6a96","getOffer(uint256)":"4579268a","getOffersIndex(address)":"c7870516","getOffersLength()":"73c2dc12","getPayment(uint256)":"3280a836","getPaymentIndex(uint48)":"7fffd401","getPaymentsLength()":"b8e0ffbe","getPrivilegedFees(address)":"deb9cbbc","getPrivilegedShareholder(uint256)":"82121da5","getPrivilegedShareholdersIndex(address)":"ac269353","getPrivilegedShareholdersLength()":"d9b373ef","getShares(address)":"f04da65b","getSharesInPrivilegedHands()":"da126eee","makeSellOffer(uint24,uint96)":"a4210aea","payDividend(address)":"312220ba","payEarndFeesToAllPrivileged()":"e8b8ccec","putNewLicense(bytes32,uint224)":"39247888","signLicense(bytes32)":"a6164ec6","withdraw(uint256)":"2e1a7d4d"},"id":80}