{
    "abi": [
        {
            "type": "constructor",
            "inputs": [
                {
                    "name": "_songCore",
                    "type": "address",
                    "internalType": "address"
                }
            ],
            "stateMutability": "nonpayable"
        },
        {
            "type": "receive",
            "stateMutability": "payable"
        },
        {
            "type": "function",
            "name": "createSong",
            "inputs": [
                {
                    "name": "_nameOfSong",
                    "type": "string",
                    "internalType": "string"
                },
                {
                    "name": "_authors",
                    "type": "string[]",
                    "internalType": "string[]"
                },
                {
                    "name": "_shareholderAddress",
                    "type": "address[]",
                    "internalType": "address[]"
                },
                {
                    "name": "_shares",
                    "type": "uint24[]",
                    "internalType": "uint24[]"
                },
                {
                    "name": "_songHash",
                    "type": "bytes32",
                    "internalType": "bytes32"
                }
            ],
            "outputs": [],
            "stateMutability": "nonpayable"
        },
        {
            "type": "function",
            "name": "getSongByAddress",
            "inputs": [
                {
                    "name": "_addr",
                    "type": "address",
                    "internalType": "address"
                }
            ],
            "outputs": [
                {
                    "name": "",
                    "type": "string",
                    "internalType": "string"
                }
            ],
            "stateMutability": "view"
        },
        {
            "type": "function",
            "name": "getSongByHash",
            "inputs": [
                {
                    "name": "_hash",
                    "type": "bytes32",
                    "internalType": "bytes32"
                }
            ],
            "outputs": [
                {
                    "name": "",
                    "type": "address",
                    "internalType": "address"
                }
            ],
            "stateMutability": "view"
        },
        {
            "type": "function",
            "name": "withdraw",
            "inputs": [],
            "outputs": [],
            "stateMutability": "nonpayable"
        },
        {
            "type": "event",
            "name": "ContractCreationFailure",
            "inputs": [
                {
                    "name": "songCreator",
                    "type": "address",
                    "indexed": true,
                    "internalType": "address"
                },
                {
                    "name": "reason",
                    "type": "string",
                    "indexed": false,
                    "internalType": "string"
                }
            ],
            "anonymous": false
        },
        {
            "type": "event",
            "name": "SongCreated",
            "inputs": [
                {
                    "name": "songCreator",
                    "type": "address",
                    "indexed": true,
                    "internalType": "address"
                },
                {
                    "name": "songAddress",
                    "type": "address",
                    "indexed": true,
                    "internalType": "address"
                },
                {
                    "name": "nameOfSong",
                    "type": "string",
                    "indexed": false,
                    "internalType": "string"
                }
            ],
            "anonymous": false
        }
    ],
    "bytecode": {
        "object": "0x608060405234801561001057600080fd5b506040516132f33803806132f383398101604081905261002f91610062565b60038054336001600160a01b031991821617909155600480549091166001600160a01b0392909216919091179055610092565b60006020828403121561007457600080fd5b81516001600160a01b038116811461008b57600080fd5b9392505050565b613252806100a16000396000f3fe608060405260043610620000485760003560e01c80633ccfd60b14620000555780638097b04a146200006f578063a35a8f1f1462000094578063b2867fbb14620000eb57600080fd5b366200005057005b600080fd5b3480156200006257600080fd5b506200006d6200011f565b005b3480156200007c57600080fd5b506200006d6200008e36600462000545565b6200019d565b348015620000a157600080fd5b50620000ce620000b33660046200064a565b6000908152600260205260409020546001600160a01b031690565b6040516001600160a01b0390911681526020015b60405180910390f35b348015620000f857600080fd5b50620001106200010a36600462000681565b62000434565b604051620000e29190620006a6565b6003546001600160a01b031633146200013757600080fd5b6003546040516000916001600160a01b03169047908381818185875af1925050503d806000811462000186576040519150601f19603f3d011682016040523d82523d6000602084013e6200018b565b606091505b50509050806200019a57600080fd5b50565b6000818152600260205260409020546001600160a01b031615620002125760405162461bcd60e51b815260206004820152602260248201527f536f6e6720776974682074686973206861736820616c72656164792065786973604482015261747360f01b606482015260840160405180910390fd5b6000898989898989898989600460009054906101000a90046001600160a01b03166040516200024190620004e8565b620002569a99989796959493929190620007b9565b604051809103906000f080156200026a5760015b620003855762000279620008cb565b806308c379a003620002e75750620002906200092e565b806200029d5750620002e9565b336001600160a01b03167f4a7ef1d26d187d38f1316209cd1c63a5bc53375f1c4aef4092615678ab48f97382604051620002d89190620006a6565b60405180910390a25062000428565b505b3d80801562000315576040519150601f19603f3d011682016040523d82523d6000602084013e6200031a565b606091505b50336001600160a01b03167f4a7ef1d26d187d38f1316209cd1c63a5bc53375f1c4aef4092615678ab48f973604051620002d89060208082526018908201527f4c6f772d6c6576656c206572726f72206f636375727265640000000000000000604082015260600190565b6001600160a01b03811660008181526001602090815260408083208790558683526002825280832080546001600160a01b03191685179055928252819052209091508190620003d68b8d8362000a4f565b50816001600160a01b0316336001600160a01b03167f02639cdd1389edec4894175df2e6d96db60c7921698952706527b7f7f43f175c8d8d6040516200041e92919062000b1d565b60405180910390a3505b50505050505050505050565b6001600160a01b03811660009081526020819052604090208054606091906200045d90620009be565b80601f01602080910402602001604051908101604052809291908181526020018280546200048b90620009be565b8015620004dc5780601f10620004b057610100808354040283529160200191620004dc565b820191906000526020600020905b815481529060010190602001808311620004be57829003601f168201915b50505050509050919050565b6126e18062000b3c83390190565b60008083601f8401126200050957600080fd5b50813567ffffffffffffffff8111156200052257600080fd5b6020830191508360208260051b85010111156200053e57600080fd5b9250929050565b600080600080600080600080600060a08a8c0312156200056457600080fd5b893567ffffffffffffffff808211156200057d57600080fd5b818c0191508c601f8301126200059257600080fd5b813581811115620005a257600080fd5b8d6020828501011115620005b557600080fd5b60209283019b509950908b01359080821115620005d157600080fd5b620005df8d838e01620004f6565b909950975060408c0135915080821115620005f957600080fd5b620006078d838e01620004f6565b909750955060608c01359150808211156200062157600080fd5b50620006308c828d01620004f6565b9a9d999c50979a9699959894979660800135949350505050565b6000602082840312156200065d57600080fd5b5035919050565b80356001600160a01b03811681146200067c57600080fd5b919050565b6000602082840312156200069457600080fd5b6200069f8262000664565b9392505050565b60006020808352835180602085015260005b81811015620006d657858101830151858201604001528201620006b8565b506000604082860101526040601f19601f8301168501019250505092915050565b81835281816020850137506000828201602090810191909152601f909101601f19169091010190565b8183526000602080850194508260005b8581101562000760576001600160a01b036200074c8362000664565b168752958201959082019060010162000730565b509495945050505050565b818352600060208085019450826000805b86811015620007ad57823562ffffff811680821462000799578384fd5b89525096830196918301916001016200077c565b50959695505050505050565b60c081526000620007cf60c083018c8e620006f7565b8281036020840152808a825260208201905060208b60051b8301018c60005b8d8110156200086d57848303601f19018452368f9003601e19018235126200081557600080fd5b8e823501803560208201915067ffffffffffffffff8111156200083757600080fd5b8036038213156200084757600080fd5b62000854858284620006f7565b60209687019690955093909301925050600101620007ee565b5050848103604086015262000884818b8d62000720565b9250505082810360608401526200089d8187896200076b565b915050836080830152620008bc60a08301846001600160a01b03169052565b9b9a5050505050505050505050565b600060033d1115620008e55760046000803e5060005160e01c5b90565b634e487b7160e01b600052604160045260246000fd5b601f8201601f1916810167ffffffffffffffff81118282101715620009275762000927620008e8565b6040525050565b600060443d10156200093d5790565b6040516003193d81016004833e81513d67ffffffffffffffff81602484011181841117156200096e57505050505090565b8285019150815181811115620009875750505050505090565b843d8701016020828501011115620009a25750505050505090565b620009b360208286010187620008fe565b509095945050505050565b600181811c90821680620009d357607f821691505b602082108103620009f457634e487b7160e01b600052602260045260246000fd5b50919050565b601f82111562000a4a576000816000526020600020601f850160051c8101602086101562000a255750805b601f850160051c820191505b8181101562000a465782815560010162000a31565b5050505b505050565b67ffffffffffffffff83111562000a6a5762000a6a620008e8565b62000a828362000a7b8354620009be565b83620009fa565b6000601f84116001811462000ab9576000851562000aa05750838201355b600019600387901b1c1916600186901b17835562000b16565b600083815260209020601f19861690835b8281101562000aec578685013582556020948501946001909201910162000aca565b508682101562000b0a5760001960f88860031b161c19848701351681555b505060018560011b0183555b5050505050565b60208152600062000b33602083018486620006f7565b94935050505056fe60806040526005805462ffffff1916620f42401790553480156200002257600080fd5b50604051620026e1380380620026e1833981016040819052620000459162000b73565b855160401015620000925760405162461bcd60e51b81526020600482015260126024820152710eee4dedcce40e8d2e8d8ca40d8cadccee8d60731b60448201526064015b60405180910390fd5b8351600a1015620000e65760405162461bcd60e51b815260206004820152601560248201527f746f6f206d616e79207368617265686f6c646572730000000000000000000000604482015260640162000089565b84518451146200012a5760405162461bcd60e51b815260206004820152600e60248201526d77726f6e67206c656e677468203160901b604482015260640162000089565b82518451146200016e5760405162461bcd60e51b815260206004820152600e60248201526d3bb937b733903632b733ba34101960911b604482015260640162000089565b6007805460018101825560009182527fa66cc928b5edb82af9bd49922954155ab7b0942694bea4ce44661d9a8736c6880180546001600160a01b031916905580805b86518162ffffff161015620003cf5760066000888362ffffff1681518110620001dd57620001dd62000c47565b6020908102919091018101516001600160a01b031682528101919091526040016000205462ffffff1615620002495760405162461bcd60e51b81526020600482015260116024820152706475706c6963617465206164647265737360781b604482015260640162000089565b6200025681600162000c73565b60066000898462ffffff168151811062000274576200027462000c47565b60200260200101516001600160a01b03166001600160a01b0316815260200190815260200160002060006101000a81548162ffffff021916908362ffffff1602179055506007878262ffffff1681518110620002d457620002d462000c47565b60209081029190910181015182546001810184556000938452919092200180546001600160a01b0319166001600160a01b039092169190911790558551869062ffffff83169081106200032b576200032b62000c47565b602002602001015160046000898462ffffff168151811062000351576200035162000c47565b6020908102919091018101516001600160a01b03168252810191909152604001600020805462ffffff191662ffffff9283161790558651879183169081106200039e576200039e62000c47565b602002602001015162ffffff1683620003b8919062000c99565b925080620003c68162000cb5565b915050620001b0565b50620f42408214620004125760405162461bcd60e51b815260206004820152600b60248201526a77726f6e67207375706c7960a81b604482015260640162000089565b601280546001600160a01b0319166001600160a01b03851617905560016200043b898262000d6b565b50600284905560005b87518110156200054b57602060ff1688828151811062000468576200046862000c47565b6020026020010151511115620004c15760405162461bcd60e51b815260206004820152601360248201527f77726f6e67206c656e67746820617574686f7200000000000000000000000000604482015260640162000089565b600060405180602001604052808a8481518110620004e357620004e362000c47565b6020908102919091010151905260038054600181018255600091909152815191925082917fc2575a0e9e593c00f959f8c92f12db2869c3395a3b0502d05e2516446f71f85b9091019081906200053a908262000d6b565b505060019092019150620004449050565b5060006040518060a0016040528060006001600160a01b0316815260200160006001600160601b0316815260200160006001600160601b0316815260200160006001600160601b03168152602001600062ffffff168152509050600060405180606001604052806203078360ec1b815260200160006001600160e01b03168152602001600015158152509050600060405180608001604052806203078360ec1b815260200160006001600160e01b03168152602001600063ffffffff16815260200160006001600160a01b03168152509050600983908060018154018082558091505060019003906000526020600020906002020160009091909190915060008201518160000160006101000a8154816001600160a01b0302191690836001600160a01b0316021790555060208201518160000160146101000a8154816001600160601b0302191690836001600160601b0316021790555060408201518160010160006101000a8154816001600160601b0302191690836001600160601b03160217905550606082015181600101600c6101000a8154816001600160601b0302191690836001600160601b0316021790555060808201518160010160186101000a81548162ffffff021916908362ffffff1602179055505050600b8290806001815401808255809150506001900390600052602060002090600202016000909190919091506000820151816000015560208201518160010160006101000a8154816001600160e01b0302191690836001600160e01b03160217905550604082015181600101601c6101000a81548160ff0219169083151502179055505050600e8190806001815401808255809150506001900390600052602060002090600302016000909190919091506000820151816000015560208201518160010160006101000a8154816001600160e01b0302191690836001600160e01b03160217905550604082015181600101601c6101000a81548163ffffffff021916908363ffffffff16021790555060608201518160020160006101000a8154816001600160a01b0302191690836001600160a01b031602179055505050600160116000306001600160a01b03166001600160a01b0316815260200190815260200160002060006101000a81548160ff02191690831515021790555033601360006101000a8154816001600160a01b0302191690836001600160a01b03160217905550505050505050505050505062000e37565b634e487b7160e01b600052604160045260246000fd5b604051601f8201601f191681016001600160401b0381118282101715620009195762000919620008d8565b604052919050565b600082601f8301126200093357600080fd5b81516001600160401b038111156200094f576200094f620008d8565b602062000965601f8301601f19168201620008ee565b82815285828487010111156200097a57600080fd5b60005b838110156200099a5785810183015182820184015282016200097d565b506000928101909101919091529392505050565b60006001600160401b03821115620009ca57620009ca620008d8565b5060051b60200190565b600082601f830112620009e657600080fd5b81516020620009ff620009f983620009ae565b620008ee565b82815260059290921b8401810191818101908684111562000a1f57600080fd5b8286015b8481101562000a635780516001600160401b0381111562000a445760008081fd5b62000a548986838b010162000921565b84525091830191830162000a23565b509695505050505050565b80516001600160a01b038116811462000a8657600080fd5b919050565b600082601f83011262000a9d57600080fd5b8151602062000ab0620009f983620009ae565b8083825260208201915060208460051b87010193508684111562000ad357600080fd5b602086015b8481101562000a635762000aec8162000a6e565b835291830191830162000ad8565b600082601f83011262000b0c57600080fd5b8151602062000b1f620009f983620009ae565b8083825260208201915060208460051b87010193508684111562000b4257600080fd5b602086015b8481101562000a6357805162ffffff8116811462000b655760008081fd5b835291830191830162000b47565b60008060008060008060c0878903121562000b8d57600080fd5b86516001600160401b038082111562000ba557600080fd5b62000bb38a838b0162000921565b9750602089015191508082111562000bca57600080fd5b62000bd88a838b01620009d4565b9650604089015191508082111562000bef57600080fd5b62000bfd8a838b0162000a8b565b9550606089015191508082111562000c1457600080fd5b5062000c2389828a0162000afa565b9350506080870151915062000c3b60a0880162000a6e565b90509295509295509295565b634e487b7160e01b600052603260045260246000fd5b634e487b7160e01b600052601160045260246000fd5b62ffffff81811683821601908082111562000c925762000c9262000c5d565b5092915050565b8082018082111562000caf5762000caf62000c5d565b92915050565b600062ffffff80831681810362000cd05762000cd062000c5d565b6001019392505050565b600181811c9082168062000cef57607f821691505b60208210810362000d1057634e487b7160e01b600052602260045260246000fd5b50919050565b601f82111562000d66576000816000526020600020601f850160051c8101602086101562000d415750805b601f850160051c820191505b8181101562000d625782815560010162000d4d565b5050505b505050565b81516001600160401b0381111562000d875762000d87620008d8565b62000d9f8162000d98845462000cda565b8462000d16565b602080601f83116001811462000dd7576000841562000dbe5750858301515b600019600386901b1c1916600185901b17855562000d62565b600085815260208120601f198616915b8281101562000e085788860151825594840194600190910190840162000de7565b508582101562000e275787850151600019600388901b60f8161c191681555b5050505050600190811b01905550565b61189a8062000e476000396000f3fe60806040526004361061020f5760003560e01c80638f62d10311610118578063b8e0ffbe116100a0578063d9b373ef1161006f578063d9b373ef1461075e578063deb9cbbc14610773578063e8b8ccec14610793578063f485012c146107a8578063fc496d6f146107e057600080fd5b8063b8e0ffbe146106ef578063be3c8ded14610704578063ce7c2ac214610717578063d093bfbb1461074957600080fd5b8063a47215d6116100e7578063a47215d614610628578063a4aa017114610644578063a6164ec614610679578063b2dd12121461068c578063b7b657f8146106d957600080fd5b80638f62d103146105665780639e2b8488146105ae578063a32511f1146105db578063a4210aea1461060857600080fd5b80633280a8361161019b5780635d7869e41161016a5780635d7869e4146104a55780635f7a784d146104c757806362d05c78146104f95780636ccb5d021461050e57806373c2dc121461055157600080fd5b80633280a8361461038757806339247888146103f25780634579268a146104125780635a28f0411461049057600080fd5b8063220dfdd6116101e2578063220dfdd6146102d657806327e235e3146102f85780632be87861146103255780632e1a7d4d14610347578063312220ba1461036757600080fd5b806315dc98e214610214578063164a67df1461023f57806316d23f3114610285578063175e9574146102c0575b600080fd5b34801561022057600080fd5b50610229610800565b604051610236919061147e565b60405180910390f35b34801561024b57600080fd5b5061027161025a3660046114af565b60066020526000908152604090205462ffffff1681565b60405162ffffff9091168152602001610236565b34801561029157600080fd5b506102b26102a03660046114ca565b600c6020526000908152604090205481565b604051908152602001610236565b3480156102cc57600080fd5b506102b2600f5481565b3480156102e257600080fd5b506102f66102f13660046114f0565b61088e565b005b34801561030457600080fd5b506102b26103133660046114af565b60106020526000908152604090205481565b34801561033157600080fd5b5061033a610947565b6040516102369190611525565b34801561035357600080fd5b506102f6610362366004611572565b6109a9565b34801561037357600080fd5b506102f66103823660046114af565b610a58565b34801561039357600080fd5b506103a76103a2366004611572565b610ab4565b6040516102369190815181526020808301516001600160e01b03169082015260408083015163ffffffff16908201526060918201516001600160a01b03169181019190915260800190565b3480156103fe57600080fd5b506102f661040d36600461158b565b610b4f565b34801561041e57600080fd5b5061043261042d366004611572565b610bbd565b604051610236919081516001600160a01b031681526020808301516001600160601b03908116918301919091526040808401518216908301526060808401519091169082015260809182015162ffffff169181019190915260a00190565b34801561049c57600080fd5b506003546102b2565b3480156104b157600080fd5b506104ba610c75565b60405161023691906115bc565b3480156104d357600080fd5b506102716104e23660046114af565b60086020526000908152604090205462ffffff1681565b34801561050557600080fd5b506102f6610d62565b34801561051a57600080fd5b5061052e610529366004611572565b610e0a565b604080516001600160a01b03909316835262ffffff909116602083015201610236565b34801561055d57600080fd5b506102b2610e55565b34801561057257600080fd5b506105996105813660046114af565b600d6020526000908152604090205463ffffffff1681565b60405163ffffffff9091168152602001610236565b3480156105ba57600080fd5b506105ce6105c9366004611572565b610e6c565b6040516102369190611626565b3480156105e757600080fd5b506102b26105f6366004611572565b600a6020526000908152604090205481565b34801561061457600080fd5b506102f6610623366004611673565b610f3c565b34801561063457600080fd5b506005546102719062ffffff1681565b34801561065057600080fd5b5061066461065f3660046114af565b610fab565b60408051928352602083019190915201610236565b6102f6610687366004611572565b61109a565b34801561069857600080fd5b506106ac6106a7366004611572565b6110f6565b60408051825181526020808401516001600160e01b03169082015291810151151590820152606001610236565b3480156106e557600080fd5b506102b260025481565b3480156106fb57600080fd5b506102b2611177565b6102f66107123660046116a6565b611189565b34801561072357600080fd5b506102716107323660046114af565b60046020526000908152604090205462ffffff1681565b34801561075557600080fd5b506102b2611255565b34801561076a57600080fd5b506102b2611267565b34801561077f57600080fd5b506102b261078e3660046114af565b611279565b34801561079f57600080fd5b506102f66112f4565b3480156107b457600080fd5b506107c86107c3366004611572565b611349565b6040516001600160a01b039091168152602001610236565b3480156107ec57600080fd5b506102f66107fb3660046116e9565b611373565b6001805461080d90611704565b80601f016020809104026020016040519081016040528092919081815260200182805461083990611704565b80156108865780601f1061085b57610100808354040283529160200191610886565b820191906000526020600020905b81548152906001019060200180831161086957829003601f168201915b505050505081565b60125460405160248101849052821515604482015230606482015260009182916001600160a01b039091169060840160408051601f198184030181529181526020820180516001600160e01b0316638357b27760e01b179052516108f2919061173e565b600060405180830381855af49150503d806000811461092d576040519150601f19603f3d011682016040523d82523d6000602084013e610932565b606091505b509150915061094182826113d7565b50505050565b6060600780548060200260200160405190810160405280929190818152602001828054801561099f57602002820191906000526020600020905b81546001600160a01b03168152600190910190602001808311610981575b5050505050905090565b6012546040516024810183905230604482015260009182916001600160a01b039091169060640160408051601f198184030181529181526020820180516001600160e01b0316627b8a6760e11b17905251610a04919061173e565b600060405180830381855af49150503d8060008114610a3f576040519150601f19603f3d011682016040523d82523d6000602084013e610a44565b606091505b5091509150610a5382826113d7565b505050565b6012546040516001600160a01b038381166024830152306044830152600092839291169060640160408051601f198184030181529181526020820180516001600160e01b031663f74b2eb360e01b17905251610a04919061173e565b604080516080810182526000808252602082018190529181018290526060810191909152600e8281548110610aeb57610aeb61175a565b6000918252602091829020604080516080810182526003939093029091018054835260018101546001600160e01b03811694840194909452600160e01b90930463ffffffff16908201526002909101546001600160a01b0316606082015292915050565b601254604051602481018490526001600160e01b038316604482015230606482015260009182916001600160a01b039091169060840160408051601f198184030181529181526020820180516001600160e01b031660016297b9a960e01b0319179052516108f2919061173e565b6040805160a08101825260008082526020820181905291810182905260608101829052608081019190915260098281548110610bfb57610bfb61175a565b60009182526020918290206040805160a08101825260029390930290910180546001600160a01b0381168452600160a01b90046001600160601b03908116948401949094526001015480841691830191909152600160601b81049092166060820152600160c01b90910462ffffff16608082015292915050565b60606003805480602002602001604051908101604052809291908181526020016000905b82821015610d5957838290600052602060002001604051806020016040529081600082018054610cc890611704565b80601f0160208091040260200160405190810160405280929190818152602001828054610cf490611704565b8015610d415780601f10610d1657610100808354040283529160200191610d41565b820191906000526020600020905b815481529060010190602001808311610d2457829003601f168201915b50505050508152505081526020019060010190610c99565b50505050905090565b60125460405130602482015260009182916001600160a01b039091169060440160408051601f198184030181529181526020820180516001600160e01b03166309b8a74f60e41b17905251610db7919061173e565b600060405180830381855af49150503d8060008114610df2576040519150601f19603f3d011682016040523d82523d6000602084013e610df7565b606091505b5091509150610e0682826113d7565b5050565b60008060078381548110610e2057610e2061175a565b60009182526020808320909101546001600160a01b03168083526004909152604090912054909462ffffff9091169350915050565b600954600090610e6790600190611786565b905090565b60408051602081019091526060815260038281548110610e8e57610e8e61175a565b90600052602060002001604051806020016040529081600082018054610eb390611704565b80601f0160208091040260200160405190810160405280929190818152602001828054610edf90611704565b8015610f2c5780601f10610f0157610100808354040283529160200191610f2c565b820191906000526020600020905b815481529060010190602001808311610f0f57829003601f168201915b5050505050815250509050919050565b60125460405162ffffff841660248201526001600160601b038316604482015230606482015260009182916001600160a01b039091169060840160408051601f198184030181529181526020820180516001600160e01b0316639ac8ed2760e01b179052516108f2919061173e565b6001600160a01b038116600090815260046020908152604080832054600d83528184205463ffffffff16808552600c90935290832054600e54849362ffffff90931692919081610ffc600183611786565b6110069190611786565b945060015b85811161109057620f424062ffffff8616600e6110288486611786565b815481106110385761103861175a565b600091825260209091206001600390920201015461105f91906001600160e01b031661179f565b61106991906117e7565b61107c906001600160e01b03168861180d565b96508061108881611820565b91505061100b565b5050505050915091565b6012546040516024810183905230604482015260009182916001600160a01b039091169060640160408051601f198184030181529181526020820180516001600160e01b0316630a705ea560e31b17905251610a04919061173e565b6040805160608101825260008082526020820181905291810191909152600b82815481106111265761112661175a565b60009182526020918290206040805160608101825260029390930290910180548352600101546001600160e01b03811693830193909352600160e01b90920460ff1615159181019190915292915050565b600e54600090610e6790600190611786565b6012546040516001600160a01b03858116602483015262ffffff851660448301526001600160601b0384166064830152306084830152600092839291169060a40160408051601f198184030181529181526020820180516001600160e01b0316631b44b7eb60e11b179052516111ff919061173e565b600060405180830381855af49150503d806000811461123a576040519150601f19603f3d011682016040523d82523d6000602084013e61123f565b606091505b509150915061124e82826113d7565b5050505050565b600b54600090610e6790600190611786565b600754600090610e6790600190611786565b6001600160a01b03811660009081526006602052604081205462ffffff16158015906112ab575060055462ffffff1615155b156112ef576005546001600160a01b038316600090815260046020526040902054600f5462ffffff928316926112e2921690611839565b6112ec9190611850565b90505b919050565b60125460405130602482015260009182916001600160a01b039091169060440160408051601f198184030181529181526020820180516001600160e01b0316634c504d5160e01b17905251610db7919061173e565b6007818154811061135957600080fd5b6000918252602090912001546001600160a01b0316905081565b6012546040516001600160601b038316602482015230604482015260009182916001600160a01b039091169060640160408051601f198184030181529181526020820180516001600160e01b031663171868bb60e01b17905251610a04919061173e565b81610e06578051156113ec5780518082602001fd5b60405162461bcd60e51b815260206004820152601360248201527219195b1959d85d1958d85b1b0819985a5b1959606a1b604482015260640160405180910390fd5b60005b83811015611449578181015183820152602001611431565b50506000910152565b6000815180845261146a81602086016020860161142e565b601f01601f19169290920160200192915050565b6020815260006114916020830184611452565b9392505050565b80356001600160a01b03811681146112ef57600080fd5b6000602082840312156114c157600080fd5b61149182611498565b6000602082840312156114dc57600080fd5b813563ffffffff8116811461149157600080fd5b6000806040838503121561150357600080fd5b823591506020830135801515811461151a57600080fd5b809150509250929050565b6020808252825182820181905260009190848201906040850190845b818110156115665783516001600160a01b031683529284019291840191600101611541565b50909695505050505050565b60006020828403121561158457600080fd5b5035919050565b6000806040838503121561159e57600080fd5b8235915060208301356001600160e01b038116811461151a57600080fd5b6000602080830181845280855180835260408601915060408160051b870101925083870160005b8281101561161957878503603f1901845281515186865261160687870182611452565b95505092850192908501906001016115e3565b5092979650505050505050565b60208152600082516020808401526116416040840182611452565b949350505050565b803562ffffff811681146112ef57600080fd5b80356001600160601b03811681146112ef57600080fd5b6000806040838503121561168657600080fd5b61168f83611649565b915061169d6020840161165c565b90509250929050565b6000806000606084860312156116bb57600080fd5b6116c484611498565b92506116d260208501611649565b91506116e06040850161165c565b90509250925092565b6000602082840312156116fb57600080fd5b6114918261165c565b600181811c9082168061171857607f821691505b60208210810361173857634e487b7160e01b600052602260045260246000fd5b50919050565b6000825161175081846020870161142e565b9190910192915050565b634e487b7160e01b600052603260045260246000fd5b634e487b7160e01b600052601160045260246000fd5b8181038181111561179957611799611770565b92915050565b6001600160e01b038281168282168181028316929181158285048214176117c8576117c8611770565b50505092915050565b634e487b7160e01b600052601260045260246000fd5b60006001600160e01b0383811680611801576118016117d1565b92169190910492915050565b8082018082111561179957611799611770565b60006001820161183257611832611770565b5060010190565b808202811582820484141761179957611799611770565b60008261185f5761185f6117d1565b50049056fea26469706673582212203d37a62bd1afcfe09c88dddffa8d124e93059c86a04c383162642b1ea530f02764736f6c63430008170033a26469706673582212204cc8ea1aef744b75000ca7adaf54ee82c89eaf746e8ac085a6de43b204d573f664736f6c63430008170033",
        "linkReferences": {}
    },
    "methodIdentifiers": {
        "createSong(string,string[],address[],uint24[],bytes32)": "8097b04a",
        "getSongByAddress(address)": "b2867fbb",
        "getSongByHash(bytes32)": "a35a8f1f",
        "withdraw()": "3ccfd60b"
    },
    "id": 29
}